:100000000C949A000C94BB000C94BB000C94BB00A5
:100010000C94BB000C94BB000C94BB000C94BB0074
:100020000C94BB000C94BB000C94BB000C94BB0064
:100030000C94BB000C94BB000C94BB000C94BB0054
:100040000C94BB000C94BB000C94BB000C94BB0044
:100050000C94BB000C94BB000C94BB000C94BB0034
:100060000C94BB000C94BB000C94BB000C94BB0024
:100070000C94BB000C94BB000C94BB000C94BB0014
:100080000C94BB000C94BB000C94BB000C94BB0004
:100090000C94BB000C94BB000C94BB000C94BB00F4
:1000A0000C94BB000C94BB000C94BB000C94BB00E4
:1000B0000C94BB000C94BB000C94BB000C94BB00D4
:1000C0000C94BB000C94BB000C94BB000C94BB00C4
:1000D0000C94BB000C94BB000C94BB000C94BB00B4
:1000E0000C94BB000C94BB000C94BB000C94BB00A4
:1000F0000C94BB000C94BB000C94BB000C94BB0094
:100100000C94BB000C94BB000C94BB000C94BB0083
:100110000C94BB000C94BB000C94BB000C94BB0073
:100120000C94BB000C94BB000C94BB000C94BB0063
:100130000C94BB0011241FBECFEFD1E8DEBFCDBFB2
:1001400000E00CBF12E0A0E0B2E0E2E5FAE000E07F
:100150000BBF02C007900D92A23BB107D9F723E075
:10016000A2EBB2E001C01D92AC33B207E1F70E94EE
:10017000FD010C9427050C9400009091B2029F7031
:1001800080915401807F892B809354019091B20219
:100190008091B302992319F0809353010895982F09
:1001A0009F7180914801807E892B8093480108953A
:1001B00093E090934201909141019F719830D9F75B
:1001C00080934201909141019F718913FBCF089563
:1001D000E9E3F1E08081816080831092B4021092A3
:1001E000B20281E08093350388E00E94D8008FE05E
:1001F0008093B3020E94BD008BEE80935601ECE425
:10020000F1E0808180688083E4E4F1E080818F7D8B
:100210008083E8E4F1E080818F7980830895809382
:10022000B40288E00E94D8008FEF80934F01809144
:10023000B402882319F086E00C94D80008951F9327
:10024000CF93DF931F921F92CDB7DEB7182F89E0AF
:1002500069839A830E94D8008FEF80934F01698150
:1002600060938001212FE12F9A81F92FA1E8B1E05D
:100270008E2F821B861718F481918D93F9CF83E01E
:100280008093350382E0809342010F900F90DF91BD
:10029000CF911F91089580913503823009F451C0A8
:1002A00080914F0183FF41C050917B0180913B03BE
:1002B000811125C040E0252F30E0842F90E02817E1
:1002C000390754F0FC01E058FE4F6081FC01EB540B
:1002D000FD4F60834F5FF1CF85EB92E09093370342
:1002E0008093360350933803F901EB54FD4F80811E
:1002F00080933903809147018A5580933A03809116
:100300004F01886080934F0180914C018F778093DB
:100310004C0180914C01806880934C0186E00E94E2
:10032000D80081E080933B03089580914F0186FFC0
:1003300008C080914F01806480934F0186E00C9447
:10034000D80008958091C80087FF03C08091CE0037
:10035000089580E008958093CE008091C80085FFC5
:10036000FCCF08950F931F93CF93DF93CDB7DEB7E4
:10037000DA950FB6F894DEBF0FBECDBFFE01E85F81
:10038000FE4F61917191AF01CE0101960E945D0215
:100390008E010F5F1F4FF80181918F01882319F0A3
:1003A0000E94AB01F8CFD3950FB6F894DEBF0FBE15
:1003B000CDBFDF91CF911F910F9108951092CD0085
:1003C00085E38093CC001092C80088E18093C90037
:1003D00086E08093CA00089510923B0388E10FB62F
:1003E000F89480936000109260000FBE0E94DE01BE
:1003F0000E94E80081E00C940F01CF93DF93CDB70A
:10040000DEB7C058D1090FB6F894DEBF0FBECDBF1E
:100410000E94EC018BE0A82E95E7992E6E018CE0EE
:10042000C80ED11C20E8E22E22E0F22E05EA12E0EE
:100430000E944B010E94A201B82E8823C1F00E94A5
:10044000AB0191E6B91213C0E0E0F2E0DE011196D3
:100450008A2D01900D928A95E1F7F601892D11926E
:100460008A95E9F76AE0CE0101960E941F0180910A
:100470003B038130E9F620913A03822F992787FDCB
:1004800090959F932F93809138031F928F93FF92A3
:10049000EF920E94B201809137038F9380913603CF
:1004A0008F931F930F930E94B20110923B030FB6DC
:1004B000F894DEBF0FBECDBFBBCF0F931F93CF937A
:1004C000DF93CDB7DEB72E970FB6F894DEBF0FBE21
:1004D000CDBF8C0186E08C831A8309838FEF9FE761
:1004E0009E838D83CE0101960E948602EF81F8855E
:1004F000E00FF11F10822E960FB6F894DEBF0FBEEC
:10050000CDBFDF91CF911F910F9108952F923F9210
:100510004F925F926F927F928F929F92AF92BF9213
:10052000CF92DF92EF92FF920F931F93CF93DF93BF
:10053000CDB7DEB72C970FB6F894DEBF0FBECDBF98
:100540007C016B018A01FC0117821682838181FF85
:10055000BDC1CE0101964C01F7019381F60193FDD7
:10056000859193FF81916F01882309F4ABC1853296
:1005700039F493FD859193FF81916F01853229F4C0
:10058000B70190E00E949704E7CF512C312C20E076
:100590002032A0F48B3269F030F4803259F083328B
:1005A00069F420612CC08D3239F0803339F4216038
:1005B00026C02260246023C0286021C027FD27C0F8
:1005C00030ED380F3A3078F426FF06C0FAE05F9E2F
:1005D000300D1124532E13C08AE0389E300D1124A3
:1005E000332E20620CC08E3221F426FD6BC12064B4
:1005F00006C08C3611F4206802C0883641F4F6013A
:1006000093FD859193FF81916F018111C1CF982F47
:100610009F7D9554933028F40C5F1F4FFFE3F983BF
:100620000DC0833631F0833771F0833509F05BC03C
:1006300022C0F801808189830E5F1F4F44244394B8
:10064000512C540115C03801F2E06F0E711CF801F5
:10065000A080B18026FF03C0652D70E002C06FEF5F
:100660007FEFC5012C870E948C042C0183012C850F
:100670002F77222E17C03801F2E06F0E711CF8019F
:10068000A080B18026FF03C0652D70E002C06FEF2F
:100690007FEFC5012C870E9481042C012C852068E6
:1006A000222E830123FC1BC0832D90E0481659069F
:1006B000B0F4B70180E290E00E9497043A94F4CF3E
:1006C000F50127FC859127FE81915F01B70190E03C
:1006D0000E94970431103A94F1E04F1A51084114E6
:1006E000510471F7E5C0843611F0893639F5F80107
:1006F00027FF07C060817181828193810C5F1F4F4A
:1007000008C060817181882777FD8095982F0E5FE2
:100710001F4F2F76B22E97FF09C090958095709548
:1007200061957F4F8F4F9F4F2068B22E2AE030E0B7
:10073000A4010E94C904A82EA81844C0853729F432
:100740002F7EB22E2AE030E025C0F22FF97FBF2E97
:100750008F36C1F018F4883579F0B4C0803719F0BD
:10076000883721F0AFC02F2F2061B22EB4FE0DC00C
:100770008B2D8460B82E09C024FF0AC09F2F96607D
:10078000B92E06C028E030E005C020E130E002C00C
:1007900020E132E0F801B7FE07C0608171818281FB
:1007A00093810C5F1F4F06C06081718180E090E0F3
:1007B0000E5F1F4FA4010E94C904A82EA818FB2D8C
:1007C000FF77BF2EB6FE0BC02B2D2E7FA51450F445
:1007D000B4FE0AC0B2FC08C02B2D2E7E05C07A2CB8
:1007E0002B2D03C07A2C01C0752C24FF0DC0FE01F7
:1007F000EA0DF11D8081803311F4297E09C022FFAA
:1008000006C07394739404C0822F867809F07394A1
:1008100023FD13C020FF06C05A2C731418F4530C88
:100820005718732C731468F4B70180E290E02C879A
:100830000E94970473942C85F5CF731410F4371825
:1008400001C0312C24FF12C0B70180E390E02C8757
:100850000E9497042C8522FF17C021FF03C088E562
:1008600090E002C088E790E0B7010CC0822F867844
:1008700059F021FD02C080E201C08BE227FD8DE22C
:10088000B70190E00E949704A51438F4B70180E303
:1008900090E00E9497045A94F7CFAA94F401EA0DCD
:1008A000F11D8081B70190E00E949704A110F5CF5F
:1008B000332009F451CEB70180E290E00E94970402
:1008C0003A94F6CFF7018681978102C08FEF9FEFB0
:1008D0002C960FB6F894DEBF0FBECDBFDF91CF913F
:1008E0001F910F91FF90EF90DF90CF90BF90AF904E
:1008F0009F908F907F906F905F904F903F902F9040
:100900000895FC010590615070400110D8F7809562
:1009100090958E0F9F1F0895FC01615070400190CB
:100920000110D8F7809590958E0F9F1F08950F9313
:100930001F93CF93DF93182F092FEB018B8181FD3C
:1009400003C08FEF9FEF20C082FF10C04E815F81F8
:100950002C813D81421753077CF4E881F9819F0186
:100960002F5F3F4F39832883108306C0E885F985C0
:10097000812F1995892B29F72E813F812F5F3F4FBA
:100980003F832E83812F902FDF91CF911F910F9165
:100990000895FA01AA27283051F1203181F1E89415
:1009A0006F936E7F6E5F7F4F8F4F9F4FAF4FB1E062
:1009B0003ED0B4E03CD0670F781F891F9A1FA11D5D
:1009C000680F791F8A1F911DA11D6A0F711D811D5E
:1009D000911DA11D20D009F468943F912AE0269F23
:1009E00011243019305D3193DEF6CF010895462F82
:1009F0004770405D4193B3E00FD0C9F7F6CF462F63
:100A00004F70405D4A3318F0495D31FD40524193CB
:100A100002D0A9F7EACFB4E0A69597958795779588
:100A20006795BA95C9F700976105710508959B010F
:100A3000AC010A2E06945795479537952795BA9598
:100A4000C9F7620F731F841F951FA01D0895F894A6
:020A5000FFCFD6
:100A52003132333435363738394100000000000076
:100A62000000000000000000000000000000000084
:100A72000000000000000000000000000000000074
:100A82000000000000000000000000000000000064
:100A92000000000000000000000000000000000054
:100AA2000000000000000000000000000000000044
:100AB2000000000000000000000000000000000034
:100AC2000000000000000000000000000000000024
:100AD2000A0D6E6577207472616D65212073697AE3
:100AE200653A2025642C20525353493A20256464E8
:100AF200426D0A0D00636F6E74656E753A20257340
:020B02000000F1
:00000001FF
