:1000000062C1000080C100007EC100007CC1000010
:100010007AC1000078C1000076C1000074C1000000
:1000200072C1000070C100006EC100006CC1000010
:100030006AC1000068C1000066C1000064C1000020
:1000400062C1000060C100005EC100005CC1000030
:100050005AC1000058C1000056C1000054C1000040
:1000600052C1000050C100004EC100004CC1000050
:100070004AC1000048C1000046C1000044C1000060
:1000800042C1000040C100003EC100003CC1000070
:100090003AC1000038C1000036C10000FCC40000B5
:1000A00032C1000030C100002EC100002CC1000090
:1000B0002AC1000028C1000026C1000024C10000A0
:1000C00022C1000020C100001EC100001CC10000B0
:1000D0001AC1000018C1000016C1000014C10000C0
:1000E00012C1000010C100000EC100000CC10000D0
:1000F0000AC1000008C1000006C1000004C10000E0
:1001000002C1000000C10000FEC00000FCC00000F1
:10011000FAC00000F8C00000F6C00000F4C0000003
:10012000F2C00000F0C00000EEC00000ECC0000013
:10013000EAC00000F505F106F106F106F106F10648
:10014000F106F1066C05F106F106F106F106F1067D
:10015000F106F1066C05F106F106F106F106F1066D
:10016000F106F1069105F106F106F106F106F10638
:10017000F106F106F505F106F106F106F106F106C4
:10018000F106F1069105F106F106F106F106F10618
:10019000F106F106F505F106F106F106F106F106A4
:1001A000F106F1068206F106F106F106F106F10606
:1001B000F106F106FA05F106F106F106F106F1067F
:1001C000F106F106F505F106F106F106F106F10674
:1001D000F106F1062306F106F106F106F106F10635
:1001E000F106F1065B06F106F106F106F106F106ED
:1001F000F106F106B606F106F106F106F106F10682
:10020000F106F106B606F106F106F106F106F10671
:10021000F106F106B606F106F106F106F106F10661
:10022000F106F106B606F106F106F106F106F10651
:10023000F106F106C006F106F106F106F106F10637
:10024000F106F106E506F106F106F106F106F10602
:10025000F106F106C006F106F106F106F106F10617
:10026000F106F106E506F106F106F106F106F106E2
:10027000F106F106D906F106F106F106F106F106DE
:10028000F106F1068B06F106F106F106F106F1061C
:10029000F106F1068B06F106F106F106F106F1060C
:1002A000F106F1068F06F106F106F106F106F106F8
:1002B000F106F106AA06F106F106F106F106F106CD
:1002C000F106F106E50611241FBECFEFD1E8DEBF2F
:1002D000CDBF00E00CBF12E0A0E0B2E0E6EFF3E13A
:1002E00000E00BBF02C007900D92A632B107D9F70C
:1002F00022E0A6E2B2E001C01D92A63CB207E1F7FF
:1003000003D10C94F9097CCE80912602982F9F701E
:10031000E4E5F1E08081807F892B80838091260253
:10032000882329F0809127028093530108958091BA
:100330002702982F9F71E8E4F1E08081807E892B6D
:100340008083089593E090934201E1E4F1E090818D
:100350009F719830E1F780934201E1E4F1E09081F0
:100360009F718913FCCF0895E9E3F1E080818160FA
:100370008083109228021092260281E08093A902C5
:1003800088E0E0DF8FE080932702BEDF8BEE809372
:100390005601ECE4F1E0808180688083E4E4F1E0E0
:1003A00080818F7D8083E8E4F1E080818F79808394
:1003B00008958093280288E0C5DF8FEF80934F0176
:1003C00080912802882311F086E0BCCF08951F9306
:1003D000CF93DF93182FD92FC62F89E0B3DF8FEF8C
:1003E00080934F01C0938001CC2371F0A12FBD2FCA
:1003F0002FEF2C0F30E02E573E4FE1E8F1E08D91CA
:100400008193E217F307D9F7EC2FF0E0EF57FE4F97
:10041000108283E08093A90282E080934201DF9101
:10042000CF911F9108958091A902823009F44EC0A6
:1004300080914F0183FF3FC0A0917B018091C50255
:10044000811126C06A2F70E0AB014F5F5F4F80E0E3
:1004500090E020E0FC01E058FE4F3081FC01E75DB8
:10046000FD4F30832F5F822F90E08417950794F320
:10047000E0ECF2E089E292E091838083A283DB01E9
:10048000A75DBD4F8C918383809147018A558483FA
:10049000EFE4F1E0808188608083ECE4F1E080812A
:1004A0008F77808380818068808386E04BDF81E066
:1004B0008093C502089580914F0186FF07C0EFE445
:1004C000F1E080818064808386E03CCF089504C0A1
:1004D00061507109810991096115710581059105C5
:1004E000B9F708951092C5020FB6F894A8958091B7
:1004F0006000886180936000109260000FBE8CD114
:1005000033DF81E056CF0895CF93DF93CDB7DEB7C9
:10051000CE5CD1090FB6F894DEBF0FBECDBF3BD283
:10052000C4D178941A8219821C821B821E821D8279
:10053000D9DF84E6FE013796DF01982F1D929A9548
:10054000E9F7EC59FF4FDF011D928A95E9F77F012A
:1005500002E212E00F2EF0ECAF2EF2E0BF2EF02DF3
:100560000F2EF0E0CF2EF2E0DF2EF02DCE0101961F
:10057000D2D166E176E185E090E0A9DF60E0CE01CE
:1005800007960BD1682FCE01079621DFCE01079683
:1005900051D1C70157D11F930F93C7D0FF92EF924C
:1005A000C4D0F5018481282F082E000C330B3F9313
:1005B0008F9382811F928F93DF92CF92B6D01F9339
:1005C0000F93B3D00FB6F894DEBF0FBECDBFCECF22
:1005D000EBEAF2E080836183633018F4613060F00D
:1005E00006C0643081F040F06530A1F01AC010926E
:1005F000AE021092AD02089580E091E09093AE02B9
:100600008093AD02089580E092E09093AE028093D3
:10061000AD02089580E094E09093AE028093AD0225
:1006200008951092AE021092AD020895BC0188EBBD
:1006300090E0BFC10895BC0188EB90E0E6C1089549
:100640000F931F93CF93DF93CDB7DEB72B970FB6E2
:10065000F894DEBF0FBECDBF8B019091AB029983A2
:100660001E821D828B87CE010B9698878F8381E037
:1006700090E09A878987CE010196D8DF81110CC05E
:1006800082E090E09A87898718870F83CE010196D0
:10069000D2DF811103C003C08EEF01C08DEF2B9616
:1006A0000FB6F894DEBF0FBECDBFDF91CF911F9183
:1006B0000F9108950F931F93CF93DF931F921F9273
:1006C000CDB7DEB78C01BE016F5F7F4F80E0B8DF32
:1006D0008093AA02811119C03981832F90E0982F4D
:1006E00088272A81822BF801938782871186368397
:1006F00022952F7041E752E0249FC001259F900D65
:1007000011249087878380E001C08EEF0F900F90B7
:10071000DF91CF911F910F9108958093CE00E8EC67
:10072000F0E0808185FFFDCF0895EF92FF920F9357
:100730001F93CF93DF93CDB7DEB7DA950FB6F8945A
:10074000DEBF0FBECDBFAE01465F5E4FFA016191C5
:100750007191AF01CE01019677D38981882381F011
:100760008E010E5F1F4F7E01FEEFEF1AFF0AD5DFED
:10077000F80181918F01882319F0EE15FF05B9F773
:10078000D3950FB6F894DEBF0FBECDBFDF91CF91EA
:100790001F910F91FF90EF900895CF92DF92EF920B
:1007A000FF920F931F93CF93DF937C01162FC8EC1A
:1007B000D0E00F2EFEECCF2ED12CF02D0EC0888174
:1007C0008823ECF7F6010081F701E10FF11D0083AA
:1007D0001F5F802FA2DF0D3021F08881882394F3E2
:1007E000EECFC2E2D2E0DF93CF939FDFFF92EF9292
:1007F0009CDFDF93CF9399DF0F900F900F900F90B6
:100800000F900F90812FDF91CF911F910F91FF904B
:10081000EF90DF90CF9008951092CD0085E3809304
:10082000CC001092C80088E18093C90086E08093D4
:10083000CA000895FC018C599F4F1192E817F907DF
:10084000E1F70895CF93DF93D82FC92F8091C50288
:10085000813029F0E8DD8091C5028130D9F780919F
:10086000C202882391F0AD2FBC2F80E090E0C0EC55
:10087000D2E0E881F981E80FF91F20812D930196DC
:100880002A8130E082179307A4F31092C502DF910A
:10089000CF91089504C061507109810991096115D2
:1008A000710581059105B9F708950F931F93CF93B3
:1008B000DF9300D000D0CDB7DEB78E010F5F1F4FA2
:1008C00086E0F80111928A95E9F788E498EEA1E0B4
:1008D000B0E089839A83AB83BC8380EA8E838CEFFC
:1008E0008D8360E880E03FD0B80188EB90E0C0D015
:1008F00066ED78E082E090E0CDDF65E086E968DED5
:1009000026960FB6F894DEBF0FBECDBFDF91CF9114
:100910001F910F9108950F931F93CF93DF93CDB73E
:10092000DEB76E970FB6F894DEBF0FBECDBF8C0159
:10093000CE010196BFDE8A8590E0F8019183808325
:100940008F8190E0938382838885998595838483C2
:100950006E960FB6F894DEBF0FBECDBFDF91CF917C
:100960001F910F910895CF93DF931F92CDB7DEB7FC
:100970009FB79983F8949981823040F4E82FF0E092
:10098000EC59FF4F60958081682360839FBF0F9073
:10099000DF91CF9108952C9A249A6C98749A0895B7
:1009A00081E08093BE021092B00280E98093BC0087
:1009B00008956115710529F18091B002811123C05C
:1009C000E8EBF2E071836083138212821582148255
:1009D00081E08093B002FB0184819581892B21F411
:1009E00084E08093BE0203C082E08093BE0285EA69
:1009F0008093BC008091B0028111FCCF8091BF0236
:100A0000089588EF089580E808956115710551F102
:100A1000FB0180859185892B39F18091B00281118C
:100A200025C0E8EBF2E071836083138212821582A5
:100A3000148281E08093B002FB0184819581892B2F
:100A400021F485E08093BE0203C083E08093BE0260
:100A500085EA8093BC008091B0028111FCCF809127
:100A6000BF02089588EF089588EF089580E80895FB
:100A7000F894ECEBF0E010821092B900DB011496D0
:100A80008C918093B80080818160808378941092EB
:100A9000AF0280E008951F920F920FB60F921124BB
:100AA0000BB60F922F933F934F935F936F937F9368
:100AB0008F939F93AF93BF93EF93FF938091B90070
:100AC000887F90E0893C910508F08BC1FC01882764
:100AD000E656FF4F8F4FB0C18091BE029EEF980F38
:100AE000933060F4E091B802F091B90280818E7F7A
:100AF0008093BB0085E88093BC008BC1853061F496
:100B0000E091B802F091B902808181608093BB00CE
:100B100085E88093BC007DC143DF8BEF8093BF02EB
:100B200078C18091BE02843051F5E8EBF2E0848117
:100B300095810190F081E02D208531858217930702
:100B400098F426813781AC014F5F5F4F5093BD020F
:100B50004093BC02F901E80FF91F80818093BB002C
:100B600085E88093BC0055C184E98093BC00E8EB24
:100B7000F2E081E0868317821092B0024AC19EEFB4
:100B8000980F923038F5E8EBF2E082819381A081F2
:100B9000B181A80FB91F11962C910196938382837E
:100BA0002093BB0025E82093BC000190F081E02D4C
:100BB000248135812817390709F02BC18091BE02A5
:100BC000823021F484E08093BE0223C185E08093CB
:100BD000BE021FC1853021F485EA8093BC0019C193
:100BE000DFDE8BEF8093BF0214C1DADE8FEF8093DC
:100BF000BF020FC18091BE02853001F5E8EBF2E043
:100C0000A081B18118968D919C91199701972481AB
:100C100035812817390749F4ECEBF0E080818F7BB0
:100C20008083808185688083F4C0ECEBF0E0808174
:100C300080648083808185688083EBC0B1DE8BEF28
:100C40008093BF02E6C02091BB008091BE02853038
:100C500069F5E8EBF2E0A081B18116966D917C9187
:100C6000179784819581AC014F5F5F4F5583448313
:100C7000FB01E80FF91F208318968D919C9119971D
:100C800001974817590748F4ECEBF0E08081806445
:100C90008083808185688083BCC0ECEBF0E080813C
:100CA0008F7B8083808185688083B3C079DE8BEF02
:100CB0008093BF02AEC02091BB008091BE02853000
:100CC000E1F4E8EBF2E0A081B18116964D915C91E0
:100CD000179784819581BC016F5F7F4F7583648313
:100CE000DA01A80FB91F2C9384E98093BC0081E03E
:100CF000868317821092B0028CC052DE8BEF8093F5
:100D0000BF0287C0E8EBF2E081E0868386EF87834D
:100D10001092B0027EC01092B4021092B302E1EBC6
:100D2000F2E0A081B18112962D913C9113978281BE
:100D30009381AC014F5F5F4F53834283D901A80F6A
:100D4000B91F8C918093BB0085EC8093BC0088E038
:100D500084835FC0E1EBF2E081E0848382E090E095
:100D60009683858385EC8093BC0053C0E1EBF2E071
:100D70001382128285EC8093BC0088E0848349C092
:100D80002091BB00E1EBF2E0A081B1814D915C913B
:100D900082819381BC016F5F7F4F73836283DA012D
:100DA000A80FB91F2C9385EC8093BC0088E0848346
:100DB00030C0E1EBF2E081E0848383E090E0968351
:100DC000858385EC8093BC0024C0E1EBF2E081E0F8
:100DD000848380E98093BC008FEF9FEF96838583A7
:100DE00018C08091AF02811109C0E8EBF2E081E008
:100DF00086838BEF87831092B0020BC0E1EBF2E0A9
:100E00008EEF9FEF9683858381E0848385EC8093CA
:100E1000BC00FF91EF91BF91AF919F918F917F9116
:100E20006F915F914F913F912F910F900BBE0F905B
:100E30000FBE0F901F901895EE0FFF1F881F8BBFDE
:100E40000790F691E02D19940F931F93CF93DF93A2
:100E5000CDB7DEB72E970FB6F894DEBF0FBECDBF6D
:100E60008C0186E08C831A8309838FEF9FE79E8332
:100E70008D83CE01019610D0EF81F885E00FF11F30
:100E800010822E960FB6F894DEBF0FBECDBFDF9155
:100E9000CF911F910F9108952F923F924F925F92A1
:100EA0006F927F928F929F92AF92BF92CF92DF927A
:100EB000EF92FF920F931F93CF93DF93CDB7DEB7DF
:100EC0002B970FB6F894DEBF0FBECDBF6C017B0130
:100ED0008A01FC0117821682838181FFBFC1CE0186
:100EE00001963C01F6019381F70193FD859193FFF3
:100EF00081917F01882309F4ADC1853239F493FDD6
:100F0000859193FF81917F01853221F4B60190E0B4
:100F1000D6D1E8CF912C212C312CFFE1F315D8F05C
:100F20008B3279F038F4803279F08332A1F4232DBA
:100F300020611DC08D3261F0803369F4232D216062
:100F400016C0832D8260382EE32DE4603E2E2AC029
:100F5000F32DF8601DC037FC2DC020ED280F2A307E
:100F600040F08E32B9F436FC75C1232D2064322E48
:100F700019C036FE06C08AE0989E200D1124922EDC
:100F800011C0EAE02E9E200D1124222EF32DF062D6
:100F90003F2E08C08C3621F4832D8068382E02C085
:100FA000883641F4F70193FD859193FF81917F018C
:100FB0008111B3CF982F9F7D9554933028F40C5F07
:100FC0001F4F9FE399830DC0833631F0833771F053
:100FD000833509F055C020C0F801808189830E5FF8
:100FE0001F4F88248394912C530112C02801F2E0F2
:100FF0004F0E511CF801A080B18036FE03C0692D50
:1010000070E002C06FEF7FEFC5014ED14C0182014D
:10101000F32DFF773F2E15C0280122E0420E511C10
:10102000F801A080B18036FE03C0692D70E002C0D7
:101030006FEF7FEFC5012DD14C01F32DF0683F2EEE
:10104000820133FC19C0822D90E088169906A0F425
:10105000B60180E290E033D12A94F5CFF50137FC58
:10106000859137FE81915F01B60190E028D1211072
:101070002A9421E0821A91088114910479F7E1C041
:10108000843611F0893639F5F80137FE07C06081E2
:101090007181828193810C5F1F4F08C060817181D3
:1010A000072E000C880B990B0E5F1F4FF32DFF7658
:1010B0003F2E97FF09C090958095709561957F4F61
:1010C0008F4F9F4FF0683F2E2AE030E0A30133D1CD
:1010D000882E861844C0853731F4232D2F7EB22EFA
:1010E0002AE030E025C0932D997FB92E8F36C1F0CC
:1010F00018F4883579F0AEC0803719F0883721F0C0
:10110000A9C0E92FE061BE2EB4FE0DC0FB2DF46036
:10111000BF2E09C034FE0AC0292F2660B22E06C099
:1011200028E030E005C020E130E002C020E132E0FC
:10113000F801B7FE07C060817181828193810C5FE5
:101140001F4F06C06081718180E090E00E5F1F4FED
:10115000A301F1D0882E8618FB2DFF773F2E36FE97
:101160000DC0232D2E7FA22E891458F434FE0BC0FF
:1011700032FC09C0832D8E7EA82E05C0B82CA32C6E
:1011800003C0B82C01C0B92CA4FE0FC0FE01E80DAD
:10119000F11D8081803321F49A2D997EA92E09C0FA
:1011A000A2FE06C0B394B39404C08A2D867809F0D9
:1011B000B394A3FC10C0A0FE06C0B21480F4280CA7
:1011C000922C9B180DC0B21458F4B60180E290E046
:1011D00076D0B394F8CFB21418F42B1802C0982C20
:1011E000212CA4FE0FC0B60180E390E068D0A2FEDF
:1011F00016C0A1FC03C088E790E002C088E590E03B
:10120000B6010CC08A2D867851F0A1FE02C08BE297
:1012100001C080E2A7FC8DE2B60190E050D08914B5
:1012200030F4B60180E390E04AD09A94F8CF8A94E3
:10123000F301E80DF11D8081B60190E040D08110EE
:10124000F6CF222009F44ECEB60180E290E037D0EE
:101250002A94F7CFF6018681978102C08FEF9FEF26
:101260002B960FB6F894DEBF0FBECDBFDF91CF91A6
:101270001F910F91FF90EF90DF90CF90BF90AF90B4
:101280009F908F907F906F905F904F903F902F90A6
:101290000895FC010590615070400110D8F78095C9
:1012A00090958E0F9F1F0895FC0161507040019032
:1012B0000110D8F7809590958E0F9F1F08950F937A
:1012C0001F93CF93DF93FB01238121FD03C08FEF99
:1012D0009FEF2CC022FF16C04681578124813581A3
:1012E0004217530744F4A081B1819D012F5F3F4F06
:1012F000318320838C93268137812F5F3F4F378343
:10130000268314C08B01EC01FB010084F185E02DE4
:101310001995892BE1F6D80116968D919C91179716
:10132000019617969C938E931697CE01DF91CF91DD
:101330001F910F910895FA01AA27283051F1203109
:1013400081F1E8946F936E7F6E5F7F4F8F4F9F4F59
:10135000AF4FB1E03ED0B4E03CD0670F781F891F9B
:101360009A1FA11D680F791F8A1F911DA11D6A0F69
:10137000711D811D911DA11D20D009F468943F911C
:101380002AE0269F11243019305D3193DEF6CF011B
:101390000895462F4770405D4193B3E00FD0C9F7E1
:1013A000F6CF462F4F70405D4A3318F0495D31FD4E
:1013B0004052419302D0A9F7EACFB4E0A6959795A1
:1013C000879577956795BA95C9F700976105710577
:1013D00008959B01AC010A2E0694579547953795C1
:1013E0002795BA95C9F7620F731F841F951FA01D1B
:0613F0000895F894FFCF00
:1013F6000A0D6E6577207472616D65212073697AB6
:10140600653A2025642C20525353493A20256464BA
:06141600426D0A0D00000A
:00000001FF
