:1000000062C1000080C100007EC100007CC1000010
:100010007AC1000078C1000076C1000074C1000000
:1000200072C1000070C100006EC100006CC1000010
:100030006AC1000068C1000066C1000064C1000020
:1000400062C1000060C100005EC100005CC1000030
:100050005AC1000058C1000056C1000054C1000040
:1000600052C1000050C100004EC100004CC1000050
:100070004AC1000048C1000046C1000044C1000060
:1000800042C1000040C100003EC100003CC1000070
:100090003AC1000038C1000036C10000BDC40000F4
:1000A00032C1000030C100002EC100002CC1000090
:1000B0002AC1000028C1000026C1000024C10000A0
:1000C00022C1000020C100001EC100001CC10000B0
:1000D0001AC1000018C1000016C1000014C10000C0
:1000E00012C1000010C100000EC100000CC10000D0
:1000F0000AC1000008C1000006C1000004C10000E0
:1001000002C1000000C10000FEC00000FCC00000F1
:10011000FAC00000F8C00000F6C00000F4C0000003
:10012000F2C00000F0C00000EEC00000ECC0000013
:10013000EAC00000B605B206B206B206B206B206C2
:10014000B206B2062D05B206B206B206B206B20675
:10015000B206B2062D05B206B206B206B206B20665
:10016000B206B2065205B206B206B206B206B20630
:10017000B206B206B605B206B206B206B206B206BC
:10018000B206B2065205B206B206B206B206B20610
:10019000B206B206B605B206B206B206B206B2069C
:1001A000B206B2064306B206B206B206B206B206FE
:1001B000B206B206BB05B206B206B206B206B20677
:1001C000B206B206B605B206B206B206B206B2066C
:1001D000B206B206E405B206B206B206B206B2062E
:1001E000B206B2061C06B206B206B206B206B206E5
:1001F000B206B2067706B206B206B206B206B2067A
:10020000B206B2067706B206B206B206B206B20669
:10021000B206B2067706B206B206B206B206B20659
:10022000B206B2067706B206B206B206B206B20649
:10023000B206B2068106B206B206B206B206B2062F
:10024000B206B206A606B206B206B206B206B206FA
:10025000B206B2068106B206B206B206B206B2060F
:10026000B206B206A606B206B206B206B206B206DA
:10027000B206B2069A06B206B206B206B206B206D6
:10028000B206B2064C06B206B206B206B206B20614
:10029000B206B2064C06B206B206B206B206B20604
:1002A000B206B2065006B206B206B206B206B206F0
:1002B000B206B2066B06B206B206B206B206B206C5
:1002C000B206B206A60611241FBECFEFD1E8DEBFEC
:1002D000CDBF00E00CBF12E0A0E0B2E0E8E7F3E140
:1002E00000E00BBF02C007900D92A23BB107D9F707
:1002F00023E0A2EBB2E001C01D92A235B207E1F704
:1003000055D10C94BA097CCE8091B202982F9F707F
:10031000E4E5F1E08081807F892B80838091B202C7
:10032000882329F08091B30280935301089580912E
:10033000B302982F9F71E8E4F1E08081807E892BE1
:100340008083089593E090934201E1E4F1E090818D
:100350009F719830E1F780934201E1E4F1E09081F0
:100360009F718913FCCF0895E9E3F1E080818160FA
:1003700080831092B4021092B20281E08093350320
:1003800088E0E0DF8FE08093B302BEDF8BEE8093E6
:100390005601ECE4F1E0808180688083E4E4F1E0E0
:1003A00080818F7D8083E8E4F1E080818F79808394
:1003B00008958093B40288E0C5DF8FEF80934F01EA
:1003C0008091B402882311F086E0BCCF08951F937A
:1003D000CF93DF93182FD92FC62F89E0B3DF8FEF8C
:1003E00080934F01C0938001CC2371F0A12FBD2FCA
:1003F000C1506C2F70E06E577E4FE1E8F1E08D91B7
:100400008193E617F707D9F783E08093350382E0FD
:1004100080934201DF91CF911F9108958091350320
:10042000823009F44EC080914F0183FF3FC0A091FC
:100430007B0180915103811126C06A2F70E0AB01CE
:100440004F5F5F4F80E090E020E0FC01E058FE4FFE
:100450003081FC01EB54FD4F30832F5F822F90E001
:100460008417950794F3ECE4F3E085EB92E0918335
:100470008083A283DB01AB54BD4F8C918383809139
:1004800047018A558483EFE4F1E0808188608083AE
:10049000ECE4F1E080818F778083808180688083C5
:1004A00086E050DF81E080935103089580914F01F1
:1004B00086FF07C0EFE4F1E080818064808386E0FE
:1004C00041CF089504C061507109810991096115F6
:1004D000710581059105B9F708958091C8008823B9
:1004E0001CF48091CE00089580E008958093CE00A2
:1004F000E8ECF0E0808185FFFDCF0895EF92FF9258
:100500000F931F93CF93DF93CDB7DEB7DA950FB676
:10051000F894DEBF0FBECDBFAE01465F5E4FFA015D
:1005200061917191AF01CE0101964FD489818823E9
:1005300081F08E010E5F1F4F7E01FEEFEF1AFF0A62
:10054000D5DFF80181918F01882319F0EE15FF05A1
:10055000B9F7D3950FB6F894DEBF0FBECDBFDF91CC
:10056000CF911F910F91FF90EF9008951092CD00C1
:1005700085E38093CC001092C80088E18093C90085
:1005800086E08093CA000895109251030FB6F89444
:10059000A89580916000886180936000109260004F
:1005A0000FBEE4DFE1DE81E004CF0895CF93DF9357
:1005B000CDB7DEB7C658D1090FB6F894DEBF0FBE6F
:1005C000CDBFE2DF72D1A8D112D178941A821982FC
:1005D0001C821B821E821D8205E74E0182E1880E6D
:1005E000911C0F2EFCE4EF2EF3E0FF2EF02D0F2ECA
:1005F000F0E8AF2EF2E0BF2EF02D0F2EF5EACF2E51
:10060000F2E0DF2EF02DCE01019627D166E176E1F2
:1006100085E090E057DF02DF60DF182F8823A9F024
:1006200065DF113691F48BE0E0E0F2E0DE01179631
:1006300001900D928A95E1F7F401802F11928A952D
:10064000E9F76AE0CE010796C2DE8091510381305E
:10065000D1F6F7018481282F082E000C330B3F932D
:100660008F9382811F928F93BF92AF9247DFF701E2
:1006700081818F9380818F93DF92CF923FDF1092A1
:1006800051030FB6F894DEBF0FBECDBFBCCFE7E37A
:10069000F3E080836183633018F4613060F006C05A
:1006A000643081F040F06530A1F01AC010923A0336
:1006B00010923903089580E091E090933A0380937B
:1006C0003903089580E092E090933A0380933903D0
:1006D000089580E094E090933A038093390308955D
:1006E00010923A03109239030895BC0188EB90E010
:1006F00021C10895BC0188EB90E048C108950F9393
:100700001F93CF93DF93CDB7DEB72B970FB6F89437
:10071000DEBF0FBECDBF8B019091370399831E8240
:100720001D828B87CE010B9698878F8381E090E0A6
:100730009A878987CE010196D8DF81110CC082E0AB
:1007400090E09A87898718870F83CE010196D2DFC0
:10075000811103C003C08EEF01C08DEF2B960FB641
:10076000F894DEBF0FBECDBFDF91CF911F910F91E7
:1007700008950F931F93CF93DF931F921F92CDB7CE
:10078000DEB78C01BE016F5F7F4F80E0B8DF8093E2
:100790003603811119C03981832F90E0982F882763
:1007A0002A81822BF80193878287118636832295CE
:1007B0002F7041E752E0249FC001259F900D112426
:1007C0009087878380E001C08EEF0F900F90DF91BC
:1007D000CF911F910F91089504C061507109810953
:1007E00091096115710581059105B9F708950F9378
:1007F0001F93CF93DF9300D000D0CDB7DEB78E012B
:100800000F5F1F4F86E0F80111928A95E9F788E49F
:1008100098EEA1E0B0E089839A83AB83BC8380EA41
:100820008E838CEF8D8360E880E05ED0B80188EB2A
:1008300090E0DFD066ED78E082E090E0CDDF65E02B
:1008400086E925DF26960FB6F894DEBF0FBECDBF32
:10085000DF91CF911F910F9108950F931F93CF9325
:10086000DF93CDB7DEB76E970FB6F894DEBF0FBE3D
:10087000CDBF8C01CE0101967CDF8A8590E0F80126
:10088000918380838F8190E093838283888599858B
:10089000958384836E960FB6F894DEBF0FBECDBFEE
:1008A000DF91CF911F910F910895CF93DF931F9206
:1008B000CDB7DEB78FEF80936400809365008091A1
:1008C0006100833069F08FB78983F89489815F93E1
:1008D00050E85093610053E0509361005F918FBFE7
:1008E0000F90DF91CF910895CF93DF931F92CDB7F3
:1008F000DEB79FB79983F8949981823040F4E82F4E
:10090000F0E0EC59FF4F60958081682360839FBFC2
:100910000F90DF91CF9108952C9A249A6C98749A35
:10092000089581E080934A0310923C0380E980930C
:10093000BC0008956115710529F180913C03811176
:1009400023C0E4E4F3E07183608313821282158292
:10095000148281E080933C03FB0184819581892B83
:1009600021F484E080934A0303C082E080934A0329
:1009700085EA8093BC0080913C038111FCCF80917B
:100980004B03089588EF089580E808956115710577
:1009900051F1FB0180859185892B39F180913C03D0
:1009A000811125C0E4E4F3E0718360831382128235
:1009B0001582148281E080933C03FB018481958140
:1009C000892B21F485E080934A0303C083E0809360
:1009D0004A0385EA8093BC0080913C038111FCCFDF
:1009E00080914B03089588EF089588EF089580E87B
:1009F0000895F894ECEBF0E010821092B900DB015E
:100A000014968C918093B800808181608083789463
:100A100010923B0380E008951F920F920FB60F9241
:100A200011240BB60F922F933F934F935F936F93C5
:100A30007F938F939F93AF93BF93EF93FF93809197
:100A4000B900887F90E0893C910508F08BC1FC01DA
:100A50008827E656FF4F8F4FB0C180914A039EEF23
:100A6000980F933060F4E0914403F0914503808146
:100A70008E7F8093BB0085E88093BC008BC185305E
:100A800061F4E0914403F09145038081816080939B
:100A9000BB0085E88093BC007DC143DF8BEF809372
:100AA0004B0378C180914A03843051F5E4E4F3E0CC
:100AB000848195810190F081E02D20853185821718
:100AC000930798F426813781AC014F5F5F4F5093B5
:100AD000490340934803F901E80FF91F808180938F
:100AE000BB0085E88093BC0055C184E98093BC00BD
:100AF000E4E4F3E081E08683178210923C034AC16C
:100B00009EEF980F923038F5E4E4F3E08281938110
:100B1000A081B181A80FB91F11962C9101969383E2
:100B200082832093BB0025E82093BC000190F081D4
:100B3000E02D248135812817390709F02BC18091D8
:100B40004A03823021F484E080934A0323C185E084
:100B500080934A031FC1853021F485EA8093BC004D
:100B600019C1DFDE8BEF80934B0314C1DADE8FEF08
:100B700080934B030FC180914A03853001F5E4E473
:100B8000F3E0A081B18118968D919C9119970197FE
:100B9000248135812817390749F4ECEBF0E0808196
:100BA0008F7B8083808185688083F4C0ECEBF0E0EC
:100BB000808180648083808185688083EBC0B1DE22
:100BC0008BEF80934B03E6C02091BB0080914A03DA
:100BD000853069F5E4E4F3E0A081B18116966D916A
:100BE0007C91179784819581AC014F5F5F4F55834E
:100BF0004483FB01E80FF91F208318968D919C9187
:100C0000199701974817590748F4ECEBF0E08081F9
:100C100080648083808185688083BCC0ECEBF0E0D9
:100C200080818F7B8083808185688083B3C079DEFB
:100C30008BEF80934B03AEC02091BB0080914A03A1
:100C40008530E1F4E4E4F3E0A081B18116964D91A2
:100C50005C91179784819581BC016F5F7F4F75838D
:100C60006483DA01A80FB91F2C9384E98093BC0038
:100C700081E08683178210923C038CC052DE8BEF9A
:100C800080934B0387C0E4E4F3E081E0868386EF42
:100C9000878310923C037EC01092400310923F0362
:100CA000EDE3F3E0A081B18112962D913C91139771
:100CB00082819381AC014F5F5F4F53834283D9019F
:100CC000A80FB91F8C918093BB0085EC8093BC006A
:100CD00088E084835FC0EDE3F3E081E0848382E019
:100CE00090E09683858385EC8093BC0053C0EDE350
:100CF000F3E01382128285EC8093BC0088E0848349
:100D000049C02091BB00EDE3F3E0A081B1814D919A
:100D10005C9182819381BC016F5F7F4F738362839B
:100D2000DA01A80FB91F2C9385EC8093BC0088E0F2
:100D3000848330C0EDE3F3E081E0848383E090E0DE
:100D40009683858385EC8093BC0024C0EDE3F3E0BB
:100D500081E0848380E98093BC008FEF9FEF9683CE
:100D6000858318C080913B03811109C0E4E4F3E05E
:100D700081E086838BEF878310923C030BC0EDE309
:100D8000F3E08EEF9FEF9683858381E0848385EC8B
:100D90008093BC00FF91EF91BF91AF919F918F9194
:100DA0007F916F915F914F913F912F910F900BBE6B
:100DB0000F900FBE0F901F901895EE0FFF1F881F0A
:100DC0008BBF0790F691E02D19940F931F93CF934B
:100DD000DF93CDB7DEB72E970FB6F894DEBF0FBE08
:100DE000CDBF8C0186E08C831A8309838FEF9FE748
:100DF0009E838D83CE01019610D0EF81F885E00FA0
:100E0000F11F10822E960FB6F894DEBF0FBECDBF35
:100E1000DF91CF911F910F9108952F923F924F92A2
:100E20005F926F927F928F929F92AF92BF92CF927A
:100E3000DF92EF92FF920F931F93CF93DF93CDB783
:100E4000DEB72B970FB6F894DEBF0FBECDBF6C0197
:100E50007B018A01FC0117821682838181FFBFC159
:100E6000CE0101963C01F6019381F70193FD859136
:100E700093FF81917F01882309F4ADC1853239F454
:100E800093FD859193FF81917F01853221F4B60115
:100E900090E0D6D1E8CF912C212C312CFFE1F31535
:100EA000D8F08B3279F038F4803279F08332A1F4C3
:100EB000232D20611DC08D3261F0803369F4232D14
:100EC000216016C0832D8260382EE32DE4603E2E13
:100ED0002AC0F32DF8601DC037FC2DC020ED280F6F
:100EE0002A3040F08E32B9F436FC75C1232D2064CF
:100EF000322E19C036FE06C08AE0989E200D1124BD
:100F0000922E11C0EAE02E9E200D1124222EF32DE8
:100F1000F0623F2E08C08C3621F4832D8068382E75
:100F200002C0883641F4F70193FD859193FF8191CA
:100F30007F018111B3CF982F9F7D9554933028F472
:100F40000C5F1F4F9FE399830DC0833631F08337C9
:100F500071F0833509F055C020C0F8018081898384
:100F60000E5F1F4F88248394912C530112C02801D7
:100F7000F2E04F0E511CF801A080B18036FE03C094
:100F8000692D70E002C06FEF7FEFC5014ED14C01BB
:100F90008201F32DFF773F2E15C0280122E0420E7B
:100FA000511CF801A080B18036FE03C0692D70E0AD
:100FB00002C06FEF7FEFC5012DD14C01F32DF0681A
:100FC0003F2E820133FC19C0822D90E088169906CD
:100FD000A0F4B60180E290E033D12A94F5CFF50178
:100FE00037FC859137FE81915F01B60190E028D1F1
:100FF00021102A9421E0821A91088114910479F732
:10100000E1C0843611F0893639F5F80137FE07C0A2
:1010100060817181828193810C5F1F4F08C0608164
:101020007181072E000C880B990B0E5F1F4FF32D5B
:10103000FF763F2E97FF09C090958095709561953A
:101040007F4F8F4F9F4FF0683F2E2AE030E0A30183
:1010500033D1882E861844C0853731F4232D2F7E56
:10106000B22E2AE030E025C0932D997FB92E8F361D
:10107000C1F018F4883579F0AEC0803719F08837A0
:1010800021F0A9C0E92FE061BE2EB4FE0DC0FB2DFA
:10109000F460BF2E09C034FE0AC0292F2660B22E8C
:1010A00006C028E030E005C020E130E002C020E1C9
:1010B00032E0F801B7FE07C06081718182819381BF
:1010C0000C5F1F4F06C06081718180E090E00E5F71
:1010D0001F4FA301F1D0882E8618FB2DFF773F2EDE
:1010E00036FE0DC0232D2E7FA22E891458F434FE17
:1010F0000BC032FC09C0832D8E7EA82E05C0B82CF3
:10110000A32C03C0B82C01C0B92CA4FE0FC0FE0153
:10111000E80DF11D8081803321F49A2D997EA92E4E
:1011200009C0A2FE06C0B394B39404C08A2D867889
:1011300009F0B394A3FC10C0A0FE06C0B21480F462
:10114000280C922C9B180DC0B21458F4B60180E202
:1011500090E076D0B394F8CFB21418F42B1802C0F4
:10116000982C212CA4FE0FC0B60180E390E068D03B
:10117000A2FE16C0A1FC03C088E790E002C088E58B
:1011800090E0B6010CC08A2D867851F0A1FE02C015
:101190008BE201C080E2A7FC8DE2B60190E050D066
:1011A000891430F4B60180E390E04AD09A94F8CFE5
:1011B0008A94F301E80DF11D8081B60190E040D0E2
:1011C0008110F6CF222009F44ECEB60180E290E0E5
:1011D00037D02A94F7CFF6018681978102C08FEF2E
:1011E0009FEF2B960FB6F894DEBF0FBECDBFDF91F9
:1011F000CF911F910F91FF90EF90DF90CF90BF9014
:10120000AF909F908F907F906F905F904F903F90A6
:101210002F900895FC010590615070400110D8F79F
:10122000809590958E0F9F1F0895FC01615070402E
:1012300001900110D8F7809590958E0F9F1F08950B
:101240000F931F93CF93DF93FB01238121FD03C0F5
:101250008FEF9FEF2CC022FF16C04681578124815B
:1012600035814217530744F4A081B1819D012F5F5E
:101270003F4F318320838C93268137812F5F3F4FEF
:101280003783268314C08B01EC01FB010084F185B8
:10129000E02D1995892BE1F6D80116968D919C9138
:1012A0001797019617969C938E931697CE01DF9110
:1012B000CF911F910F910895FA01AA27283051F17B
:1012C000203181F1E8946F936E7F6E5F7F4F8F4F77
:1012D0009F4FAF4FB1E03ED0B4E03CD0670F781FD6
:1012E000891F9A1FA11D680F791F8A1F911DA11DBB
:1012F0006A0F711D811D911DA11D20D009F46894F4
:101300003F912AE0269F11243019305D3193DEF69B
:10131000CF010895462F4770405D4193B3E00FD051
:10132000C9F7F6CF462F4F70405D4A3318F0495D3C
:1013300031FD4052419302D0A9F7EACFB4E0A6951F
:101340009795879577956795BA95C9F70097610541
:10135000710508959B01AC010A2E06945795479597
:1013600037952795BA95C9F7620F731F841F951F8C
:08137000A01D0895F894FFCFC1
:101378003132333435363738394100000000000047
:101388000000000000000000000000000000000055
:101398000000000000000000000000000000000045
:1013A8000000000000000000000000000000000035
:1013B8000000000000000000000000000000000025
:1013C8000000000000000000000000000000000015
:1013D8000000000000000000000000000000000005
:1013E80000000000000000000000000000000000F5
:1013F8000A0D6E6577207472616D65212073697AB4
:10140800653A2025642C20525353493A20256464B8
:10141800426D0A0D00636F6E74656E753A20257310
:021428000000C2
:00000001FF
