:1000000062C100007FC100007DC100007BC1000013
:1000100079C1000077C1000075C1000073C1000004
:1000200071C100006FC100006DC100006BC1000014
:1000300069C1000067C1000065C1000063C1000024
:1000400061C100005FC100005DC100005BC1000034
:1000500059C1000057C1000055C1000053C1000044
:1000600051C100004FC100004DC100004BC1000054
:1000700049C1000047C1000045C1000043C1000064
:1000800041C100003FC100003DC100003BC1000074
:1000900039C1000037C1000035C10000E4C30000D1
:1000A00031C100002FC100002DC100002BC1000094
:1000B00029C1000027C1000025C1000023C10000A4
:1000C00021C100001FC100001DC100001BC10000B4
:1000D00019C1000017C1000015C1000013C10000C4
:1000E00011C100000FC100000DC100000BC10000D4
:1000F00009C1000007C1000005C1000003C10000E4
:1001000001C10000FFC00000FDC00000FBC00000F6
:10011000F9C00000F7C00000F5C00000F3C0000007
:10012000F1C00000EFC00000EDC00000EBC0000017
:10013000E9C00000DD04D905D905D905D905D905DF
:10014000D905D9055404D905D905D905D905D90545
:10015000D905D9055404D905D905D905D905D90535
:10016000D905D9057904D905D905D905D905D90500
:10017000D905D905DD04D905D905D905D905D9058C
:10018000D905D9057904D905D905D905D905D905E0
:10019000D905D905DD04D905D905D905D905D9056C
:1001A000D905D9056A05D905D905D905D905D905CE
:1001B000D905D905E204D905D905D905D905D90547
:1001C000D905D905DD04D905D905D905D905D9053C
:1001D000D905D9050B05D905D905D905D905D905FD
:1001E000D905D9054305D905D905D905D905D905B5
:1001F000D905D9059E05D905D905D905D905D9054A
:10020000D905D9059E05D905D905D905D905D90539
:10021000D905D9059E05D905D905D905D905D90529
:10022000D905D9059E05D905D905D905D905D90519
:10023000D905D905A805D905D905D905D905D905FF
:10024000D905D905CD05D905D905D905D905D905CA
:10025000D905D905A805D905D905D905D905D905DF
:10026000D905D905CD05D905D905D905D905D905AA
:10027000D905D905C105D905D905D905D905D905A6
:10028000D905D9057305D905D905D905D905D905E4
:10029000D905D9057305D905D905D905D905D905D4
:1002A000D905D9057705D905D905D905D905D905C0
:1002B000D905D9059205D905D905D905D905D90595
:1002C000D905D905CD0511241FBECFEFD1E8DEBF7A
:1002D000CDBF00E00CBF12E0A0E0B2E0E6ECF1E13F
:1002E00000E00BBF02C007900D92A632B107D9F70C
:1002F00022E0A6E2B2E001C01D92A53CB207E1F700
:10030000F7D05FC77DCE80912602982F9F70E4E5DD
:10031000F1E08081807F892B808380912602882371
:1003200029F080912702809353010895809127023C
:10033000982F9F71E8E4F1E08081807E892B808393
:10034000089593E090934201E1E4F1E090819F7180
:100350009830E1F780934201E1E4F1E090819F71F0
:100360008913FCCF0895E9E3F1E080818160808307
:10037000109228021092260281E08093A90288E060
:10038000E0DF8FE080932702BEDF8BEE8093560183
:10039000ECE4F1E0808180688083E4E4F1E0808136
:1003A0008F7D8083E8E4F1E080818F7980830895F8
:1003B0008093280288E0C5DF8FEF80934F01809102
:1003C0002802882311F086E0BCCF08951F93CF93B5
:1003D000DF93182FD92FC62F89E0B3DF8FEF8093DB
:1003E0004F01C0938001CC2371F0A12FBD2F2FEFBF
:1003F0002C0F30E02E573E4FE1E8F1E08D918193D4
:10040000E217F307D9F7EC2FF0E0EF57FE4F108219
:1004100083E08093A90282E080934201DF91CF9133
:100420001F9108958091A902823009F44EC08091F5
:100430004F0183FF3FC0A0917B018091C4028111D5
:1004400026C06A2F70E0AB014F5F5F4F80E090E005
:1004500020E0FC01E058FE4F3081FC01E75DFD4FDC
:1004600030832F5F822F90E08417950794F3EFEB92
:10047000F2E089E292E091838083A283DB01A75DB1
:10048000BD4F8C918383809147018A558483EFE42B
:10049000F1E0808188608083ECE4F1E080818F77F7
:1004A000808380818068808386E04BDF81E0809359
:1004B000C402089580914F0186FF07C0EFE4F1E088
:1004C00080818064808386E03CCF08951092C402CE
:1004D0000FB6F894A89580916000886180936000C1
:1004E000109260000FBE2FD13EDF81E061CF0895F2
:1004F000CF93DF93CDB7DEB7C857D1090FB6F894C5
:10050000DEBF0FBECDBF8ED13FD17894DFDF0F2E7F
:10051000F4E67F2EF02D8E010F5F1F4F0F2EF2E2BB
:10052000EF2EF2E0FF2EF02D5E0185E6A80EB11C45
:100530000F2EF4E16F2EF02D0F2EFFEBCF2EF2E0F9
:10054000DF2EF02D0F2EF0E08F2EF2E09F2EF02DFB
:1005500069DFF801872D11928A95E9F7C80101D169
:10056000C8018BD0582EFE01E80FF11D80818D301F
:10057000A9F4FF92EF92AFD01F930F93ACD0FF92EC
:10058000EF92A9D06FEF650DC80120DFC801E9D057
:100590000F900F900F900F900F900F908091C402CA
:1005A0008130B1F6F501862D11928A95E9F7F601B1
:1005B0008281882369F0A081B181FE01EB59FF4F50
:1005C0009F01280F311D8D918193E217F307D9F711
:1005D000FF92EF9280D0BF92AF927DD0F6018481DE
:1005E000282F082E000C330B3F938F9382811F928C
:1005F0008F939F928F926FD0FF92EF926CD0109258
:10060000C4020FB6F894DEBF0FBECDBFA1CFEAEA99
:10061000F2E080836183633018F4613060F006C0DB
:10062000643081F040F06530A1F01AC01092AD0244
:100630001092AC02089580E091E09093AD02809317
:10064000AC02089580E092E09093AD028093AC02FA
:10065000089580E094E09093AD028093AC020895F9
:100660001092AD021092AC0208958093CE00E8EC97
:10067000F0E0808185FFFDCF0895CF92DF92EF9269
:10068000FF920F931F93CF93DF936C0110E0C8ECA0
:10069000D0E00F2EFEECEF2EF12CF02D0EC0888155
:1006A0008823ECF7F7010081F601E10FF11D0083CB
:1006B0001F5F802FDADF0D3021F08881882394F3CB
:1006C000EECF812FDF91CF911F910F91FF90EF908F
:1006D000DF90CF900895EF92FF920F931F93CF93E7
:1006E000DF93CDB7DEB7DA950FB6F894DEBF0FBE55
:1006F000CDBFAE01465F5E4FFA0161917191AF01CE
:10070000CE01019689D28981882381F08E010E5F06
:100710001F4F7E01FEEFEF1AFF0AA7DFF80181915C
:100720008F01882319F0EE15FF05B9F7D3950FB6A1
:10073000F894DEBF0FBECDBFDF91CF911F910F9117
:10074000FF90EF9008951092CD0085E38093CC0048
:100750001092C80088E18093C90086E08093CA00A7
:100760000895FC018C599F4F1192E817F907E1F7A2
:10077000089504C0615071098109910961157105DD
:1007800081059105B9F708950F931F93CF93DF93D8
:1007900000D000D0CDB7DEB78E010F5F1F4F86E0CF
:1007A000F80111928A95E9F788E498EEA1E0B0E0AB
:1007B00089839A83AB83BC8380EA8E838CEF8D839D
:1007C00060E880E017D0B80188EB90E039D066EDA2
:1007D00078E082E090E0CDDF65E086E918DF2696DC
:1007E0000FB6F894DEBF0FBECDBFDF91CF911F9142
:1007F0000F910895CF93DF931F92CDB7DEB79FB7C8
:100800009983F8949981823040F4E82FF0E0EC5914
:10081000FF4F60958081682360839FBF0F90DF91B9
:10082000CF9108952C9A249A6C98749A089581E037
:100830008093BD021092AF0280E98093BC000895BE
:10084000F894ECEBF0E010821092B900DB01149602
:100850008C918093B800808181608083789410921D
:10086000AE0280E008951F920F920FB60F921124EE
:100870000BB60F922F933F934F935F936F937F939A
:100880008F939F93AF93BF93EF93FF938091B900A2
:10089000887F90E0893C910508F08BC1FC01882796
:1008A000E656FF4F8F4FB0C18091BD029EEF980F6B
:1008B000933060F4E091B702F091B80280818E7FAE
:1008C0008093BB0085E88093BC008BC1853061F4C8
:1008D000E091B702F091B802808181608093BB0003
:1008E00085E88093BC007DC1A2DF8BEF8093BE02C0
:1008F00078C18091BD02843051F5E7EBF2E084814C
:1009000095810190F081E02D208531858217930734
:1009100098F426813781AC014F5F5F4F5093BC0242
:100920004093BB02F901E80FF91F80818093BB005F
:1009300085E88093BC0055C184E98093BC00E7EB57
:10094000F2E081E0868317821092AF024AC19EEFE7
:10095000980F923038F5E7EBF2E082819381A08125
:10096000B181A80FB91F11962C91019693838283B0
:100970002093BB0025E82093BC000190F081E02D7E
:10098000248135812817390709F02BC18091BD02D8
:10099000823021F484E08093BD0223C185E08093FE
:1009A000BD021FC1853021F485EA8093BC0019C1C6
:1009B0003EDF8BEF8093BE0214C139DF8FEF80934F
:1009C000BE020FC18091BD02853001F5E7EBF2E078
:1009D000A081B18118968D919C91199701972481DE
:1009E00035812817390749F4ECEBF0E080818F7BE3
:1009F0008083808185688083F4C0ECEBF0E08081A7
:100A000080648083808185688083EBC010DF8BEFFA
:100A10008093BE02E6C02091BB008091BD0285306C
:100A200069F5E7EBF2E0A081B18116966D917C91BA
:100A3000179784819581AC014F5F5F4F5583448345
:100A4000FB01E80FF91F208318968D919C9119974F
:100A500001974817590748F4ECEBF0E08081806477
:100A60008083808185688083BCC0ECEBF0E080816E
:100A70008F7B8083808185688083B3C0D8DE8BEFD5
:100A80008093BE02AEC02091BB008091BD02853034
:100A9000E1F4E7EBF2E0A081B18116964D915C9113
:100AA000179784819581BC016F5F7F4F7583648345
:100AB000DA01A80FB91F2C9384E98093BC0081E070
:100AC000868317821092AF028CC0B1DE8BEF8093C9
:100AD000BE0287C0E7EBF2E081E0868386EF878382
:100AE0001092AF027EC01092B3021092B202E0EBFD
:100AF000F2E0A081B18112962D913C9113978281F1
:100B00009381AC014F5F5F4F53834283D901A80F9C
:100B1000B91F8C918093BB0085EC8093BC0088E06A
:100B200084835FC0E0EBF2E081E0848382E090E0C8
:100B30009683858385EC8093BC0053C0E0EBF2E0A4
:100B40001382128285EC8093BC0088E0848349C0C4
:100B50002091BB00E0EBF2E0A081B1814D915C916E
:100B600082819381BC016F5F7F4F73836283DA015F
:100B7000A80FB91F2C9385EC8093BC0088E0848378
:100B800030C0E0EBF2E081E0848383E090E0968384
:100B9000858385EC8093BC0024C0E0EBF2E081E02B
:100BA000848380E98093BC008FEF9FEF96838583D9
:100BB00018C08091AE02811109C0E7EBF2E081E03C
:100BC00086838BEF87831092AF020BC0E0EBF2E0DD
:100BD0008EEF9FEF9683858381E0848385EC8093FD
:100BE000BC00FF91EF91BF91AF919F918F917F9149
:100BF0006F915F914F913F912F910F900BBE0F908E
:100C00000FBE0F901F901895EE0FFF1F881F8BBF10
:100C10000790F691E02D19940F931F93CF93DF93D4
:100C2000CDB7DEB72E970FB6F894DEBF0FBECDBF9F
:100C30008C0186E08C831A8309838FEF9FE79E8364
:100C40008D83CE01019610D0EF81F885E00FF11F62
:100C500010822E960FB6F894DEBF0FBECDBFDF9187
:100C6000CF911F910F9108952F923F924F925F92D3
:100C70006F927F928F929F92AF92BF92CF92DF92AC
:100C8000EF92FF920F931F93CF93DF93CDB7DEB711
:100C90002B970FB6F894DEBF0FBECDBF6C017B0162
:100CA0008A01FC0117821682838181FFBFC1CE01B8
:100CB00001963C01F6019381F70193FD859193FF25
:100CC00081917F01882309F4ADC1853239F493FD08
:100CD000859193FF81917F01853221F4B60190E0E7
:100CE000D6D1E8CF912C212C312CFFE1F315D8F08F
:100CF0008B3279F038F4803279F08332A1F4232DED
:100D000020611DC08D3261F0803369F4232D216094
:100D100016C0832D8260382EE32DE4603E2E2AC05B
:100D2000F32DF8601DC037FC2DC020ED280F2A30B0
:100D300040F08E32B9F436FC75C1232D2064322E7A
:100D400019C036FE06C08AE0989E200D1124922E0E
:100D500011C0EAE02E9E200D1124222EF32DF06208
:100D60003F2E08C08C3621F4832D8068382E02C0B7
:100D7000883641F4F70193FD859193FF81917F01BE
:100D80008111B3CF982F9F7D9554933028F40C5F39
:100D90001F4F9FE399830DC0833631F0833771F085
:100DA000833509F055C020C0F801808189830E5F2A
:100DB0001F4F88248394912C530112C02801F2E024
:100DC0004F0E511CF801A080B18036FE03C0692D82
:100DD00070E002C06FEF7FEFC5014ED14C01820180
:100DE000F32DFF773F2E15C0280122E0420E511C43
:100DF000F801A080B18036FE03C0692D70E002C00A
:100E00006FEF7FEFC5012DD14C01F32DF0683F2E20
:100E1000820133FC19C0822D90E088169906A0F457
:100E2000B60180E290E033D12A94F5CFF50137FC8A
:100E3000859137FE81915F01B60190E028D12110A4
:100E40002A9421E0821A91088114910479F7E1C073
:100E5000843611F0893639F5F80137FE07C0608114
:100E60007181828193810C5F1F4F08C06081718105
:100E7000072E000C880B990B0E5F1F4FF32DFF768A
:100E80003F2E97FF09C090958095709561957F4F93
:100E90008F4F9F4FF0683F2E2AE030E0A30133D1FF
:100EA000882E861844C0853731F4232D2F7EB22E2C
:100EB0002AE030E025C0932D997FB92E8F36C1F0FE
:100EC00018F4883579F0AEC0803719F0883721F0F2
:100ED000A9C0E92FE061BE2EB4FE0DC0FB2DF46069
:100EE000BF2E09C034FE0AC0292F2660B22E06C0CC
:100EF00028E030E005C020E130E002C020E132E02F
:100F0000F801B7FE07C060817181828193810C5F17
:100F10001F4F06C06081718180E090E00E5F1F4F1F
:100F2000A301F1D0882E8618FB2DFF773F2E36FEC9
:100F30000DC0232D2E7FA22E891458F434FE0BC031
:100F400032FC09C0832D8E7EA82E05C0B82CA32CA0
:100F500003C0B82C01C0B92CA4FE0FC0FE01E80DDF
:100F6000F11D8081803321F49A2D997EA92E09C02C
:100F7000A2FE06C0B394B39404C08A2D867809F00B
:100F8000B394A3FC10C0A0FE06C0B21480F4280CD9
:100F9000922C9B180DC0B21458F4B60180E290E078
:100FA00076D0B394F8CFB21418F42B1802C0982C52
:100FB000212CA4FE0FC0B60180E390E068D0A2FE11
:100FC00016C0A1FC03C088E790E002C088E590E06D
:100FD000B6010CC08A2D867851F0A1FE02C08BE2CA
:100FE00001C080E2A7FC8DE2B60190E050D08914E8
:100FF00030F4B60180E390E04AD09A94F8CF8A9416
:10100000F301E80DF11D8081B60190E040D0811020
:10101000F6CF222009F44ECEB60180E290E037D020
:101020002A94F7CFF6018681978102C08FEF9FEF58
:101030002B960FB6F894DEBF0FBECDBFDF91CF91D8
:101040001F910F91FF90EF90DF90CF90BF90AF90E6
:101050009F908F907F906F905F904F903F902F90D8
:101060000895FC010590615070400110D8F78095FB
:1010700090958E0F9F1F0895FC0161507040019064
:101080000110D8F7809590958E0F9F1F08950F93AC
:101090001F93CF93DF93FB01238121FD03C08FEFCB
:1010A0009FEF2CC022FF16C04681578124813581D5
:1010B0004217530744F4A081B1819D012F5F3F4F38
:1010C000318320838C93268137812F5F3F4F378375
:1010D000268314C08B01EC01FB010084F185E02D17
:1010E0001995892BE1F6D80116968D919C91179749
:1010F000019617969C938E931697CE01DF91CF9110
:101100001F910F910895FA01AA27283051F120313B
:1011100081F1E8946F936E7F6E5F7F4F8F4F9F4F8B
:10112000AF4FB1E03ED0B4E03CD0670F781F891FCD
:101130009A1FA11D680F791F8A1F911DA11D6A0F9B
:10114000711D811D911DA11D20D009F468943F914E
:101150002AE0269F11243019305D3193DEF6CF014D
:101160000895462F4770405D4193B3E00FD0C9F713
:10117000F6CF462F4F70405D4A3318F0495D31FD80
:101180004052419302D0A9F7EACFB4E0A6959795D3
:10119000879577956795BA95C9F7009761057105A9
:1011A00008959B01AC010A2E0694579547953795F3
:1011B0002795BA95C9F7620F731F841F951FA01D4D
:0611C0000895F894FFCF32
:1011C6000A0D6E6577207472616D65212073697AE8
:1011D600653A2025642C20525353493A20256464ED
:0611E600426D0A0D00003D
:00000001FF
