:1000000068C1000086C1000084C1000082C10000F8
:1000100080C100007EC100007CC100007AC10000E8
:1000200078C1000076C1000074C1000072C10000F8
:1000300070C100006EC100006CC100006AC1000008
:1000400068C1000066C1000064C1000062C1000018
:1000500060C100005EC100005CC100005AC1000028
:1000600058C1000056C1000054C1000052C1000038
:1000700050C100004EC100004CC100004AC1000048
:1000800048C1000046C1000044C1000042C1000058
:1000900040C100003EC100003CC1000097C6000006
:1000A00038C1000036C1000034C1000032C1000078
:1000B00030C100002EC100002CC100002AC1000088
:1000C00028C1000026C1000024C1000022C1000098
:1000D00020C100001EC100001CC100001AC10000A8
:1000E00018C1000016C1000014C1000012C10000B8
:1000F00010C100000EC100000CC100000AC10000C8
:1001000008C1000006C1000004C1000002C10000D7
:1001100000C10000FEC00000FCC00000FAC00000EA
:10012000F8C00000F6C00000F4C00000F2C00000FB
:10013000F0C0000090078C088C088C088C088C0894
:100140008C088C0807078C088C088C088C088C0895
:100150008C088C0807078C088C088C088C088C0885
:100160008C088C082C078C088C088C088C088C0850
:100170008C088C0890078C088C088C088C088C08DC
:100180008C088C082C078C088C088C088C088C0830
:100190008C088C0890078C088C088C088C088C08BC
:1001A0008C088C081D088C088C088C088C088C081E
:1001B0008C088C0895078C088C088C088C088C0897
:1001C0008C088C0890078C088C088C088C088C088C
:1001D0008C088C08BE078C088C088C088C088C084E
:1001E0008C088C08F6078C088C088C088C088C0806
:1001F0008C088C0851088C088C088C088C088C089A
:100200008C088C0851088C088C088C088C088C0889
:100210008C088C0851088C088C088C088C088C0879
:100220008C088C0851088C088C088C088C088C0869
:100230008C088C085B088C088C088C088C088C084F
:100240008C088C0880088C088C088C088C088C081A
:100250008C088C085B088C088C088C088C088C082F
:100260008C088C0880088C088C088C088C088C08FA
:100270008C088C0874088C088C088C088C088C08F6
:100280008C088C0826088C088C088C088C088C0834
:100290008C088C0826088C088C088C088C088C0824
:1002A0008C088C082A088C088C088C088C088C0810
:1002B0008C088C0845088C088C088C088C088C08E5
:1002C0008C088C0880086364696E6F707375785849
:1002D0005B0011241FBECFEFD1E8DEBFCDBF00E031
:1002E0000CBF15E0A0E0B2E0E8E1FEE100E00BBFEA
:1002F00002C007900D92AA34B107D9F725E0AAE40D
:10030000B5E001C01D92A93EB207E1F7F8D00C9408
:100310000A0F76CE80914A05982F9F70E4E5F1E0B0
:100320008081807F892B808380914A05882329F0F2
:1003300080914B0580935301089580914B05982F30
:100340009F71E8E4F1E08081807E892B80830895AD
:1003500093E090934201E1E4F1E090819F71983045
:10036000E1F780934201E1E4F1E090819F7189130C
:10037000FCCF0895E9E3F1E08081816080831092F1
:100380004C0510924A0581E08093CD0588E0E0DFBE
:100390008FE080934B05BEDF8BEE80935601ECE43B
:1003A000F1E0808180688083E4E4F1E080818F7DEA
:1003B0008083E8E4F1E080818F79808308958093E1
:1003C0004C0588E0C5DF8FEF80934F0180914C058D
:1003D000882311F086E0BCCF08951F93CF93DF935D
:1003E000182FD92FC62F89E0B3DF8FEF80934F01ED
:1003F000C0938001CC2371F0A12FBD2F2FEF2C0FC4
:1004000030E02E573E4FE1E8F1E08D918193E21705
:10041000F307D9F7EC2FF0E0EF57FE4F108283E09F
:100420008093CD0582E080934201DF91CF911F91AF
:1004300008958091CD05823009F44EC080914F011E
:1004400083FF3FC0A0917B018091E805811126C008
:100450006A2F70E0AB014F5F5F4F80E090E020E0DB
:10046000FC01E058FE4F3081FC01E35BFA4F308322
:100470002F5F822F90E08417950794F3E3EEF5E069
:100480008DE495E091838083A283DB01A35BBA4F67
:100490008C918383809147018A558483EFE4F1E056
:1004A000808188608083ECE4F1E080818F778083B5
:1004B00080818068808386E04BDF81E08093E8055F
:1004C000089580914F0186FF07C0EFE4F1E080813D
:1004D0008064808386E03CCF08951092E8050FB6D3
:1004E000F894A895809160008861809360001092D4
:1004F00060000FBE04D13EDF81E061CF0895CF934D
:10050000DF93CDB7DEB7C450D1400FB6F894DEBF4D
:100510000FBECDBF3AD4EBD37894DFDF8E01015507
:100520001F4F0F2EF4E5DF2EF02D0F2EF0E0EF2EF3
:10053000F2E0FF2EF02D0F2EF4E7AF2EF2E0BF2EEB
:10054000F02D0F2EF8E48F2EF2E09F2EF02DBE013D
:10055000675A7F4FCE01019608D1CE0101963AD35A
:10056000CE01019621D18823C1F3F8018D2D11927E
:100570008A95E9F7B801CE01019677D36D2DC801B0
:100580002CDFFF92EF9283D0CD5FDE4F198218826D
:10059000C350D140CE018D5F9E4FBFD00F900F90C2
:1005A000CD5FDE4F8881C350D140813031F49F92BE
:1005B0008F926DD00F900F90CACFBF92AF9267D03D
:1005C0000F900F90C4CFEEECF5E080836183633031
:1005D00018F4613060F006C0643081F040F065309E
:1005E000A1F01AC01092D1051092D005089580E0B4
:1005F00091E09093D1058093D005089580E092E03A
:100600009093D1058093D005089580E094E0909375
:10061000D1058093D00508951092D1051092D00590
:1006200008958093CE00E8ECF0E0808185FFFDCF57
:100630000895CF92DF92EF92FF920F931F93CF9383
:10064000DF936C01162FC8ECD0E00F2EFEECEF2EDE
:10065000F12CF02D0EC088818823ECF7F701008182
:10066000F601E10FF11D00831F5F802FDADF0D30EF
:1006700021F08881882394F3EECF812FDF91CF91F1
:100680001F910F91FF90EF90DF90CF900895EF9220
:10069000FF920F931F93CF93DF93CDB7DEB7DA9519
:1006A0000FB6F894DEBF0FBECDBFAE01465F5E4F02
:1006B000FA0161917191AF01CE010196A0D58981B6
:1006C000882381F08E010E5F1F4F7E01FEEFEF1A2F
:1006D000FF0AA7DFF80181918F01882319F0EE1539
:1006E000FF05B9F7D3950FB6F894DEBF0FBECDBFA7
:1006F000DF91CF911F910F91FF90EF90089510928D
:10070000CD0085E38093CC001092C80088E18093EF
:10071000C90086E08093CA000895CF93DF93D82F55
:10072000C92F8091E805813029F083DE8091E805AA
:100730008130D9F78091E505882391F0AD2FBC2F4A
:1007400080E090E0C3EED5E0E881F981E80FF91F81
:1007500020812D9301962A8130E082179307A4F31C
:100760001092E805DF91CF91089526E5FB01DC01A9
:1007700001900D922A95E1F7FB011082FC0112AA6B
:10078000FB012081222329F0FC01EA5AFF4F10824D
:1007900004C0FC01EA5AFF4F1082FC01E95AFF4FE6
:1007A000108280E090E008958F929F92AF92BF9266
:1007B000CF92DF92EF92FF920F931F93CF93DF932D
:1007C000CDB7DEB767970FB6F894DEBF0FBECDBFCB
:1007D0008C0181EA92E09F938F9359DF87E093E049
:1007E0009F938F9354DF85ED92E09F938F934FDF1C
:1007F000B8016F5F7F4F4CE050E0CE0101967C0165
:10080000CED41D86FF92EF9242DFC8010F969F93D0
:100810008F938DED92E09F938F9339DFF80186855A
:100820001F928F9387EE92E09F938F9330DFF801B2
:1008300087A51F928F9381EF92E09F938F9327DF7D
:10084000F801ED5AFF4F80811F928F938DEF92E058
:100850009F938F931CDF0FB6F894DEBF0FBECDBF02
:100860000F2EFEE5AF2EF3E0BF2EF02D0F2EFAE097
:10087000EF2EF02D6E019EE0C90ED11C0F2EFEE36F
:100880008F2EF3E09F2EF02D11C06CE373E0C801B2
:1008900076D4892B31F081E0E9E7FE1601F180E0A2
:1008A0001EC09F928F92F3DE0F900F90BF92AF9277
:1008B000EEDEF6018E2D11928A95E9F760E0C60111
:1008C000B8DEFE840F2D0F2C000C110B68E673E0D0
:1008D000C80155D40F900F90892BB9F2DCCF6796E1
:1008E0000FB6F894DEBF0FBECDBFDF91CF911F9141
:1008F0000F91FF90EF90DF90CF90BF90AF909F90BF
:100900008F9008959F92AF92BF92CF92DF92EF9215
:10091000FF920F931F93CF93DF93CDB7DEB7E69788
:100920000FB6F894DEBF0FBECDBF6C01FE0131964D
:1009300084E1DF011D928A95E9F70AE613E00F2EA4
:10094000F0EAEF2EF3E0FF2EF02D1F930F939FDEC2
:1009500060E0CE0101966DDE0F900F908D30C1F4F6
:100960004CE050E0BE016F5F7F4FC601019617D487
:100970006894992495F87E01B5E1EB0EF11C05EC25
:1009800013E00F2EFCEFAF2EF3E0BF2EF02D06C0CC
:10099000FF92EF927CDE0F900F90D7CFF701892D59
:1009A00011928A95E9F71F930F9371DE60E0C701FA
:1009B00040DE0F900F908132B8F4BE016B5E7F4F26
:1009C000C6010F96E5D30F2EFAE09F2EF02D7E0183
:1009D000A5E1EA0EF11C02E214E00F2EF4E4AF2EC2
:1009E000F4E0BF2EF02D06C0BF92AF9250DE0F9004
:1009F0000F90D4CFF701892D11928A95E9F71F93B3
:100A00000F9345DE60E0C70114DE0F900F90843035
:100A100050F51EAA1DAACE01C5969F938F9381E41F
:100A200094E09F938F93CE0145969F938F93C6D367
:100A30008DA9D6011E968C930F900F900F900F905A
:100A40000F900F900F2EF4E19F2EF02D7E01B5E157
:100A5000EB0EF11C0AE614E00F2EF1E9AF2EF4E0E4
:100A6000BF2EF02D06C0BF92AF9211DE0F900F90F7
:100A7000C1CFF701892D11928A95E9F71F930F9342
:100A800006DE60E0C701D5DD0F900F908530D0F411
:100A90001EAA1DAACE01C5969F938F9381E494E070
:100AA0009F938F93CE0145969F938F9387D38DA964
:100AB000D6019F968C930F900F900F900F900F90F0
:100AC0000F9006C0BF92AF92E2DD0F900F90D1CF92
:100AD000E6960FB6F894DEBF0FBECDBFDF91CF9183
:100AE0001F910F91FF90EF90DF90CF90BF90AF904C
:100AF0009F900895AF92BF92CF92DF92EF92FF92B4
:100B00000F931F93CF93DF93CDB7DEB72B970FB61D
:100B1000F894DEBF0FBECDBF7C0109EB14E05C0191
:100B200080E3A80EB11C6701A4E5CA0ED11C1F9377
:100B30000F93ADDD60E0CE0101967BDD81500F901B
:100B40000F90833030F5CE010B969F938F9381E405
:100B500094E09F938F93CE0101969F938F932ED312
:100B60006B85C701C09663D0F701EC5AFF4F208117
:100B70003181D701D0968D919C91D197820F931F8F
:100B8000918380830F900F900F900F900F900F9094
:100B900010C06B85C5014BD0F60120813181D70192
:100BA000D0968D919C91D197820F931F91838083D2
:100BB000BECF2B960FB6F894DEBF0FBECDBFDF9130
:100BC000CF911F910F91FF90EF90DF90CF90BF904A
:100BD000AF900895CF93DF93EC01FC01EA5AFF4FE9
:100BE0008081882341F087EE94E09F938F934FDDBF
:100BF0000F900F9009C08FEF94E09F938F9347DD84
:100C0000CE0180DE0F900F90FE01E95AFF4F8081E8
:100C1000882341F08DE195E09F938F9338DD0F900D
:100C20000F9002C0CE0166DFDF91CF910895CF9380
:100C3000DF93EC0185E290E099838883DE011396CF
:100C40008CE0EDE3F5E001900D928A95E1F78FEFEE
:100C5000860F813320F46BA380E090E002C081E036
:100C600090E01A82DF91CF910895CF93DF93EC014A
:100C7000FC01EC5AFF4F80819181DB018C939695AA
:100C8000879511968C931197FE01819112968C9302
:100C9000129713969E01235F3F4F91919D932E17BC
:100CA0003F07D9F7FE013F96DB011F969E01215DAC
:100CB0003F4F91919D932E173F07D9F78E85FB01EA
:100CC00087A78FA580ABCD5ADF4F888181AB80E0AD
:100CD00090E0DF91CF91089504C0615071098109BE
:100CE00091096115710581059105B9F708950F9373
:100CF0001F93CF93DF9300D000D0CDB7DEB78E0126
:100D00000F5F1F4F86E0F80111928A95E9F788E49A
:100D100098EEA1E0B0E089839A83AB83BC8380EA3C
:100D20008E838CEF8D8360E880E017D0B80188EB6C
:100D300090E039D066ED78E082E090E0CDDF65E0CC
:100D400086E941DC26960FB6F894DEBF0FBECDBF14
:100D5000DF91CF911F910F910895CF93DF931F9251
:100D6000CDB7DEB79FB79983F8949981823040F46C
:100D7000E82FF0E0EC59FF4F609580816823608395
:100D80009FBF0F90DF91CF9108952C9A249A6C9871
:100D9000749A089581E08093E1051092D30580E96B
:100DA0008093BC000895F894ECEBF0E01082109270
:100DB000B900DB0114968C918093B800808181602A
:100DC000808378941092D20580E008951F920F924C
:100DD0000FB60F9211240BB60F922F933F934F93A0
:100DE0005F936F937F938F939F93AF93BF93EF9393
:100DF000FF938091B900887F90E0893C910508F0CD
:100E00008BC1FC018827E656FF4F8F4FB0C1809100
:100E1000E1059EEF980F933060F4E091DB05F091CF
:100E2000DC0580818E7F8093BB0085E88093BC00C9
:100E30008BC1853061F4E091DB05F091DC058081A8
:100E400081608093BB0085E88093BC007DC1A2DFF8
:100E50008BEF8093E20578C18091E105843051F5F4
:100E6000EBEDF5E0848195810190F081E02D208506
:100E700031858217930798F426813781AC014F5F43
:100E80005F4F5093E0054093DF05F901E80FF91F2C
:100E900080818093BB0085E88093BC0055C184E9C4
:100EA0008093BC00EBEDF5E081E086831782109221
:100EB000D3054AC19EEF980F923038F5EBEDF5E07F
:100EC00082819381A081B181A80FB91F11962C91C5
:100ED0000196938382832093BB0025E82093BC0076
:100EE0000190F081E02D248135812817390709F020
:100EF0002BC18091E105823021F484E08093E105EB
:100F000023C185E08093E1051FC1853021F485EA86
:100F10008093BC0019C13EDF8BEF8093E20514C1C2
:100F200039DF8FEF8093E2050FC18091E1058530B5
:100F300001F5EBEDF5E0A081B18118968D919C91C2
:100F400019970197248135812817390749F4ECEB6B
:100F5000F0E080818F7B8083808185688083F4C00E
:100F6000ECEBF0E080818064808380818568808301
:100F7000EBC010DF8BEF8093E205E6C02091BB0051
:100F80008091E105853069F5EBEDF5E0A081B18157
:100F900016966D917C91179784819581AC014F5F76
:100FA0005F4F55834483FB01E80FF91F2083189698
:100FB0008D919C91199701974817590748F4ECEBCC
:100FC000F0E0808180648083808185688083BCC0FC
:100FD000ECEBF0E080818F7B80838081856880836B
:100FE000B3C0D8DE8BEF8093E205AEC02091BB008A
:100FF0008091E1058530E1F4EBEDF5E0A081B18170
:1010000016964D915C91179784819581BC016F5F15
:101010007F4F75836483DA01A80FB91F2C9384E98D
:101020008093BC0081E0868317821092D3058CC028
:10103000B1DE8BEF8093E20587C0EBEDF5E081E058
:10104000868386EF87831092D3057EC01092D705E2
:101050001092D605E4EDF5E0A081B18112962D91B4
:101060003C91139782819381AC014F5F5F4F538313
:101070004283D901A80FB91F8C918093BB0085ECE6
:101080008093BC0088E084835FC0E4EDF5E081E0FC
:10109000848382E090E09683858385EC8093BC0016
:1010A00053C0E4EDF5E01382128285EC8093BC001E
:1010B00088E0848349C02091BB00E4EDF5E0A08185
:1010C000B1814D915C9182819381BC016F5F7F4FB3
:1010D00073836283DA01A80FB91F2C9385EC809388
:1010E000BC0088E0848330C0E4EDF5E081E08483D7
:1010F00083E090E09683858385EC8093BC0024C0D8
:10110000E4EDF5E081E0848380E98093BC008FEF1B
:101110009FEF9683858318C08091D205811109C005
:10112000EBEDF5E081E086838BEF87831092D305AA
:101130000BC0E4EDF5E08EEF9FEF9683858381E0B1
:10114000848385EC8093BC00FF91EF91BF91AF91B8
:101150009F918F917F916F915F914F913F912F91CF
:101160000F900BBE0F900FBE0F901F901895EE0FB3
:10117000FF1F881F8BBF0790F691E02D1994FB018C
:10118000DC018D91019080190110D9F3990B08951C
:10119000FB01DC0101900D920020E1F70895FB01B5
:1011A000DC014150504048F001900D920020C9F7F9
:1011B00001C01D9241505040E0F70895CF93DF9356
:1011C000CDB7DEB72E970FB6F894DEBF0FBECDBFFA
:1011D00085E08C838C899D899A838983AE01485EE2
:1011E0005F4F6E897F89CE010196E0D32E960FB6B0
:1011F000F894DEBF0FBECDBFDF91CF9108950F935E
:101200001F93CF93DF93CDB7DEB72E970FB6F89429
:10121000DEBF0FBECDBF8C0186E08C831A830983AD
:101220008FEF9FE79E838D83CE01019610D0EF81D3
:10123000F885E00FF11F10822E960FB6F894DEBFEE
:101240000FBECDBFDF91CF911F910F9108952F92C7
:101250003F924F925F926F927F928F929F92AF9246
:10126000BF92CF92DF92EF92FF920F931F93CF9393
:10127000DF93CDB7DEB72B970FB6F894DEBF0FBE66
:10128000CDBF6C017B018A01FC011782168283812C
:1012900081FFBFC1CE0101963C01F6019381F701A8
:1012A00093FD859193FF81917F01882309F4ADC15E
:1012B000853239F493FD859193FF81917F018532C9
:1012C00021F4B60190E0F0D4E8CF912C212C312C00
:1012D000FFE1F315D8F08B3279F038F4803279F0F1
:1012E0008332A1F4232D20611DC08D3261F0803343
:1012F00069F4232D216016C0832D8260382EE32DE2
:10130000E4603E2E2AC0F32DF8601DC037FC2DC0CE
:1013100020ED280F2A3040F08E32B9F436FC75C12A
:10132000232D2064322E19C036FE06C08AE0989E16
:10133000200D1124922E11C0EAE02E9E200D1124C2
:10134000222EF32DF0623F2E08C08C3621F4832D1F
:101350008068382E02C0883641F4F70193FD8591EC
:1013600093FF81917F018111B3CF982F9F7D955479
:10137000933028F40C5F1F4F9FE399830DC0833691
:1013800031F0833771F0833509F055C020C0F80182
:10139000808189830E5F1F4F88248394912C530191
:1013A00012C02801F2E04F0E511CF801A080B1805C
:1013B00036FE03C0692D70E002C06FEF7FEFC501FC
:1013C0002AD44C018201F32DFF773F2E15C028014E
:1013D00022E0420E511CF801A080B18036FE03C00D
:1013E000692D70E002C06FEF7FEFC50109D44C0199
:1013F000F32DF0683F2E820133FC19C0822D90E05E
:1014000088169906A0F4B60180E290E04DD42A94A3
:10141000F5CFF50137FC859137FE81915F01B6016B
:1014200090E042D421102A9421E0821A910881147C
:10143000910479F7E1C0843611F0893639F5F80165
:1014400037FE07C060817181828193810C5F1F4FDD
:1014500008C060817181072E000C880B990B0E5F0C
:101460001F4FF32DFF763F2E97FF09C09095809573
:10147000709561957F4F8F4F9F4FF0683F2E2AE008
:1014800030E0A30166D4882E861844C0853731F435
:10149000232D2F7EB22E2AE030E025C0932D997F98
:1014A000B92E8F36C1F018F4883579F0AEC0803788
:1014B00019F0883721F0A9C0E92FE061BE2EB4FEF3
:1014C0000DC0FB2DF460BF2E09C034FE0AC0292FC9
:1014D0002660B22E06C028E030E005C020E130E0F2
:1014E00002C020E132E0F801B7FE07C060817181DF
:1014F000828193810C5F1F4F06C06081718180E003
:1015000090E00E5F1F4FA30124D4882E8618FB2D78
:10151000FF773F2E36FE0DC0232D2E7FA22E89147D
:1015200058F434FE0BC032FC09C0832D8E7EA82EE9
:1015300005C0B82CA32C03C0B82C01C0B92CA4FE44
:101540000FC0FE01E80DF11D8081803321F49A2D3A
:10155000997EA92E09C0A2FE06C0B394B39404C01C
:101560008A2D867809F0B394A3FC10C0A0FE06C0B3
:10157000B21480F4280C922C9B180DC0B21458F4AD
:10158000B60180E290E090D3B394F8CFB21418F48F
:101590002B1802C0982C212CA4FE0FC0B60180E3AA
:1015A00090E082D3A2FE16C0A1FC03C088E790E0C1
:1015B00002C088E590E0B6010CC08A2D867851F013
:1015C000A1FE02C08BE201C080E2A7FC8DE2B60161
:1015D00090E06AD3891430F4B60180E390E064D3DC
:1015E0009A94F8CF8A94F301E80DF11D8081B60139
:1015F00090E05AD38110F6CF222009F44ECEB601E6
:1016000080E290E051D32A94F7CFF601868197814A
:1016100002C08FEF9FEF2B960FB6F894DEBF0FBE80
:10162000CDBFDF91CF911F910F91FF90EF90DF9091
:10163000CF90BF90AF909F908F907F906F905F9072
:101640004F903F902F90089520FD09C0FC0123FD8D
:1016500005C022FF02C073836283518340830895D3
:1016600044FD17C046FD17C0AB01BC01DA01FB0108
:10167000AA0FBB1FEE1FFF1F1094D1F74A0F5B1F6D
:101680006E1F7F1FCB01BA01660F771F881F991F3E
:1016900009C033E001C034E0660F771F881F991F2F
:1016A0003150D1F7620F711D811D911D08950F9367
:1016B0001F93CF93DF938C01C801B8D2EC0197FD43
:1016C00006C08BD2892BC1F7B801CE0129D3CE0138
:1016D000DF91CF911F910F9108958F929F92AF92BA
:1016E000BF92EF92FF920F931F93CF93DF938C01E2
:1016F000D62F7A01B22E9AD29C0133272B32310594
:1017000031F02D32310559F48B2D8068B82ED1502F
:1017100011F480E061C0C80189D297FDFACFCB2DCA
:10172000CD7F2B2D2073F9F48033E9F4AA24AA94F9
:10173000AD0E09F43EC0C80179D297FD3AC09C01B4
:101740002F7D33272835310541F4C264D25089F109
:10175000C8016CD297FF07C02CC0B6FE02C0C260A1
:1017600001C0C261DA2D812C912C540120ED280F8B
:10177000283078F0C4FF03C0B801D2D217C02A3095
:1017800040F0C6FFF9CF2F7D3FEE320F3630A0F785
:1017900027504C2FC501B40163DF4B015C01C260CF
:1017A000D15051F0C80142D297FFE0CFC1FD04C033
:1017B000B0CF812C912C5401C7FF08C0B094A094E5
:1017C00090948094811C911CA11CB11C2C2FB501FC
:1017D000A401C70139DF81E0DF91CF911F910F9103
:1017E000FF90EF90BF90AF909F908F9008955F9281
:1017F0006F927F928F929F92AF92BF92CF92DF9221
:10180000EF92FF920F931F93CF93DF93CDB7DEB785
:10181000A0970FB6F894DEBF0FBECDBF5C01962E29
:101820007A01F9018E010F5F1F4F680180E2D80134
:101830001D928A95E9F7D50113968C9080E090E08F
:10184000612C712C30E061E070E083FC259183FE17
:1018500021918F01522E211103C080E090E090C0B1
:101860002E3511F4009751F1432F50E048175907D6
:101870003CF42D3559F12D3219F4772009F103C0CC
:10188000772009F468C0452D469546954695D601C2
:10189000A40FB11D452D47708B0102C0000F111F11
:1018A0004A95E2F7A8015C91452B4C93651459F0D9
:1018B000561410F45394E7CF5A94E5CF31E004C0A6
:1018C0007724739401C0712C0196BFCF772019F053
:1018D0008E8180628E83311103C08824839417C067
:1018E000F6019E012F5D3F4F8081809581932E17D9
:1018F0003F07D1F7F2CFE114F10429F0D7018C931F
:10190000F70131967F019A94812C9920E9F0C50165
:101910008DD197FD17C0FC01FF2723E0F595E795D2
:101920002A95E1F7EC0DFD1D208130E0AC014770F8
:10193000552702C0359527954A95E2F720FDDBCF64
:10194000B501EED1811089CFE114F10411F0D70176
:101950001C92C80115C0422F469546954695D60162
:10196000A40FB11D422F47708B0102C0000F111F41
:101970004A95E2F7A8015C91452B4C93622EA4CFC7
:10198000A0960FB6F894DEBF0FBECDBFDF91CF910A
:101990001F910F91FF90EF90DF90CF90BF90AF908D
:1019A0009F908F907F906F905F9008955F926F925D
:1019B0007F928F929F92AF92BF92CF92DF92EF92DF
:1019C000FF920F931F93CF93DF936C01EB015A01AA
:1019D000FC0117821682512CF601E380FE01E3FC24
:1019E0008591E3FE8191182FEF01882309F4E0C06F
:1019F00090E0F3D0892B19F0C60159DEEDCF1532F6
:101A000041F4FE01E3FC1591E3FE1191EF01153263
:101A100071F4C6010BD197FDC9C0412F50E09C0164
:101A2000332724173507C1F2B6017AD1C1C01A3263
:101A300039F4E3FC1591E3FE1191EF0101E001C0DF
:101A400000E0F12C20ED210F2A3078F402606F2D98
:101A500070E080E090E040E203DEF62EFE01E3FC61
:101A60001591E3FE1191EF01EDCF01FF03C0F110DD
:101A700003C09EC0FF24FA94183619F01C3651F0AA
:101A800010C0FE01E3FC1591E3FE1191EF01183641
:101A900041F408600460FE01E3FC1591E3FE11913E
:101AA000EF01112309F484C0612F70E086EC92E00D
:101AB0009CD0892B09F47CC000FD07C0F501808013
:101AC0009180C50102965C0102C0812C912C1E36CA
:101AD00049F4F6014681578160E070E0202FC4018F
:101AE000B3DD7ACF1336A1F401FD02C0FF24F394D5
:101AF000C6019CD097FD5AC08114910429F0F401CD
:101B00008083C40101964C01FA94F110F1CF4AC0D0
:101B10001B3551F49E01A4016F2DC60168DEEC0156
:101B2000892B09F03FC039C0C601C1DD97FD3EC019
:101B30001F3649F128F4143621F1193639F125C040
:101B4000133771F01537E9F020C08114910429F0A2
:101B5000F4016082C40101964C01FA94FF2059F00F
:101B6000C60164D03C0197FD06C037D0892B69F3CC
:101B7000B601C301D5D081149104A1F0F401108203
:101B800011C0006203C0006101C00064202FA401E5
:101B90006F2DC601A2DD811105C0F601838180731E
:101BA00029F406C000FD18CF539416CF552019F024
:101BB000852D90E002C08FEF9FEFDF91CF911F91B5
:101BC0000F91FF90EF90DF90CF90BF90AF909F90DC
:101BD0008F907F906F905F900895911118C180321F
:101BE00019F089508550D0F70895FC01059006162C
:101BF00021F00020D9F7C00108953197CF01089551
:101C0000FC010590615070400110D8F780959095C7
:101C10008E0F9F1F0895FC016150704001900110CC
:101C2000D8F7809590958E0F9F1F0895CF93DF93DF
:101C3000EC012B8120FF33C026FF0AC02F7B2B83B2
:101C40008E819F8101969F838E838A8190E029C037
:101C500022FF0FC0E881F9818081082E000C990BCA
:101C6000009719F420622B831AC03196F983E88318
:101C70000EC0EA85FB85199597FF09C02B81019657
:101C800011F080E201C080E1822B8B8308C02E819D
:101C90003F812F5F3F4F3F832E83992702C08FEFF5
:101CA0009FEFDF91CF9108950F931F93CF93DF9311
:101CB000FB01238121FD03C08FEF9FEF2CC022FF8A
:101CC00016C046815781248135814217530744F459
:101CD000A081B1819D012F5F3F4F318320838C9381
:101CE000268137812F5F3F4F3783268314C08B01B6
:101CF000EC01FB010084F185E02D1995892BE1F6BB
:101D0000D80116968D919C911797019617969C93E2
:101D10008E931697CE01DF91CF911F910F91089569
:101D2000FB01238120FF12C026FD10C08F3F3FEF33
:101D3000930761F082832F7D20642383268137817E
:101D40002150310937832683992708958FEF9FEF1C
:101D50000895FA01AA27283051F1203181F1E89441
:101D60006F936E7F6E5F7F4F8F4F9F4FAF4FB1E08E
:101D70003ED0B4E03CD0670F781F891F9A1FA11D89
:101D8000680F791F8A1F911DA11D6A0F711D811D8A
:101D9000911DA11D20D009F468943F912AE0269F4F
:101DA00011243019305D3193DEF6CF010895462FAE
:101DB0004770405D4193B3E00FD0C9F7F6CF462F8F
:101DC0004F70405D4A3318F0495D31FD40524193F8
:101DD00002D0A9F7EACFB4E0A695979587957795B5
:101DE0006795BA95C9F700976105710508959B013C
:101DF000AC010A2E06945795479537952795BA95C5
:101E0000C9F7620F731F841F951FA01D089599279E
:081E100088270895F894FFCF24
:101E18000A0D456E766F692064657320696E666F7A
:101E2800726D6174696F6E73207669612073616E7B
:101E3800732066696C2E20456E20617474656E741B
:101E480065206465206C6120636F6E6669726D61E0
:101E580074696F6E2E2E2E000A0D526573756C74A0
:101E68006174206465206C27616363757365206401
:101E78006520726563657074696F6E3A2052657586
:101E8800737369000A0D526573756C74617420640C
:101E980065206C27616363757365206465207265CE
:101EA80063657074696F6E3A204572726575722E3B
:101EB800000A0A0D4C657320696E666F726D617455
:101EC800696F6E732073756976616E7465732073BC
:101ED8006F6E742D656C6C657320636F72726563C9
:101EE8007465733F000A0D4E414D3A09000A0D4EC4
:101EF8006F6D3A092573000A0D4167653A09257522
:101F0800000A0D506F6964733A092575000A0D546B
:101F1800656D703A0925640A0D2D2D2D2D2D2D2D59
:101F28002D2D2D2D2D2D2D2D2D2D2D2D2D2D2D2DD9
:101F38002D2D2D2D2D2D2D2D2D2D2D2D2D2D2D2DC9
:101F48002D2D2D2D2D2D2D2D2D2D0A0079000A0D2D
:101F5800566575696C6C657A207265706F6E64720F
:101F680065207061722028792F6E293A20000A0DA9
:101F780028792F6E293F20006E000D0A5665756975
:101F88006C6C657A20696E64697175657220766F0C
:101F9800747265206E756D65726F20642761737346
:101FA8007572616E6365206D616C616469653A0084
:101FB8000A4E414D20696E76616C6964652E205623
:101FC8006575696C6C657A2072652D6573736179C6
:101FD80065722E0A000A0D566575696C6C657A2063
:101FE800696E64697175657220766F747265206EAA
:101FF8006F6D20656E2063617261637465726573CD
:10200800207374616E64617264733A000A0D4E6FD6
:102018006D20696E76616C6964652E2056657569F8
:102028006C6C657A2072652D657373617965722EA3
:102038000A000A0D566575696C6C657A20696E64CC
:10204800697175657220766F747265206167653A8B
:10205800002564000A0D41676520696E76616C6928
:1020680064652E20566575696C6C657A2072652DDD
:10207800657373617965722E0A000A0D5665756974
:102088006C6C657A20696E64697175657220766F0B
:1020980074726520706F69647320286C6273293AC2
:1020A800000A0D506F69647320696E76616C69640B
:1020B800652E20566575696C6C657A2072652D658C
:1020C8007373617965720A0D000A0D566575696C3E
:1020D8006C657A20656E7472657220766F747265AD
:1020E8002074656D70657261747572652843656CDE
:1020F80073697573293A00446F7373696572206355
:102108006C69656E7420636F6D706C65742E000A5F
:102118000D446F737369657220636C69656E742012
:10212800612072656D706C69722E0A0D0054656DC0
:1021380070657261747572652064656A6120707279
:102148006973652028577574292E0A0D0054656D2A
:0A2158007065726174757265000015
:00000001FF
